{
  "_format": "hh-sol-artifact-1",
  "contractName": "Campaign",
  "sourceName": "contracts/Campaign.sol",
  "abi": [
    {
      "inputs": [
        {
          "internalType": "address",
          "name": "_owner",
          "type": "address"
        },
        {
          "internalType": "string",
          "name": "_campaignCID",
          "type": "string"
        },
        {
          "internalType": "uint256",
          "name": "_createdAt",
          "type": "uint256"
        },
        {
          "internalType": "uint256",
          "name": "_target",
          "type": "uint256"
        },
        {
          "internalType": "uint256",
          "name": "_id",
          "type": "uint256"
        },
        {
          "internalType": "contract ISuperfluid",
          "name": "host",
          "type": "address"
        },
        {
          "internalType": "contract ISuperToken",
          "name": "_cusdX",
          "type": "address"
        },
        {
          "internalType": "contract IERC20",
          "name": "_cusd",
          "type": "address"
        }
      ],
      "stateMutability": "nonpayable",
      "type": "constructor"
    },
    {
      "inputs": [],
      "name": "NotAcceptedSuperToken",
      "type": "error"
    },
    {
      "inputs": [],
      "name": "NotImplemented",
      "type": "error"
    },
    {
      "inputs": [],
      "name": "UnauthorizedHost",
      "type": "error"
    },
    {
      "anonymous": false,
      "inputs": [
        {
          "indexed": true,
          "internalType": "address",
          "name": "sender",
          "type": "address"
        },
        {
          "indexed": true,
          "internalType": "address",
          "name": "tokenAddress",
          "type": "address"
        },
        {
          "indexed": false,
          "internalType": "uint256",
          "name": "amount",
          "type": "uint256"
        }
      ],
      "name": "Deposit",
      "type": "event"
    },
    {
      "anonymous": false,
      "inputs": [
        {
          "indexed": true,
          "internalType": "address",
          "name": "receiver",
          "type": "address"
        }
      ],
      "name": "ReceiverChanged",
      "type": "event"
    },
    {
      "inputs": [],
      "name": "CFAV1_TYPE",
      "outputs": [
        {
          "internalType": "bytes32",
          "name": "",
          "type": "bytes32"
        }
      ],
      "stateMutability": "view",
      "type": "function"
    },
    {
      "inputs": [],
      "name": "_receiver",
      "outputs": [
        {
          "internalType": "address",
          "name": "",
          "type": "address"
        }
      ],
      "stateMutability": "view",
      "type": "function"
    },
    {
      "inputs": [
        {
          "internalType": "contract ISuperToken",
          "name": "superToken",
          "type": "address"
        },
        {
          "internalType": "address",
          "name": "agreementClass",
          "type": "address"
        },
        {
          "internalType": "bytes32",
          "name": "",
          "type": "bytes32"
        },
        {
          "internalType": "bytes",
          "name": "agreementData",
          "type": "bytes"
        },
        {
          "internalType": "bytes",
          "name": "",
          "type": "bytes"
        },
        {
          "internalType": "bytes",
          "name": "ctx",
          "type": "bytes"
        }
      ],
      "name": "afterAgreementCreated",
      "outputs": [
        {
          "internalType": "bytes",
          "name": "newCtx",
          "type": "bytes"
        }
      ],
      "stateMutability": "nonpayable",
      "type": "function"
    },
    {
      "inputs": [
        {
          "internalType": "contract ISuperToken",
          "name": "superToken",
          "type": "address"
        },
        {
          "internalType": "address",
          "name": "agreementClass",
          "type": "address"
        },
        {
          "internalType": "bytes32",
          "name": "",
          "type": "bytes32"
        },
        {
          "internalType": "bytes",
          "name": "agreementData",
          "type": "bytes"
        },
        {
          "internalType": "bytes",
          "name": "cbdata",
          "type": "bytes"
        },
        {
          "internalType": "bytes",
          "name": "ctx",
          "type": "bytes"
        }
      ],
      "name": "afterAgreementTerminated",
      "outputs": [
        {
          "internalType": "bytes",
          "name": "newCtx",
          "type": "bytes"
        }
      ],
      "stateMutability": "nonpayable",
      "type": "function"
    },
    {
      "inputs": [
        {
          "internalType": "contract ISuperToken",
          "name": "superToken",
          "type": "address"
        },
        {
          "internalType": "address",
          "name": "agreementClass",
          "type": "address"
        },
        {
          "internalType": "bytes32",
          "name": "",
          "type": "bytes32"
        },
        {
          "internalType": "bytes",
          "name": "agreementData",
          "type": "bytes"
        },
        {
          "internalType": "bytes",
          "name": "cbdata",
          "type": "bytes"
        },
        {
          "internalType": "bytes",
          "name": "ctx",
          "type": "bytes"
        }
      ],
      "name": "afterAgreementUpdated",
      "outputs": [
        {
          "internalType": "bytes",
          "name": "newCtx",
          "type": "bytes"
        }
      ],
      "stateMutability": "nonpayable",
      "type": "function"
    },
    {
      "inputs": [
        {
          "internalType": "contract ISuperToken",
          "name": "",
          "type": "address"
        },
        {
          "internalType": "address",
          "name": "",
          "type": "address"
        },
        {
          "internalType": "bytes32",
          "name": "",
          "type": "bytes32"
        },
        {
          "internalType": "bytes",
          "name": "",
          "type": "bytes"
        },
        {
          "internalType": "bytes",
          "name": "",
          "type": "bytes"
        }
      ],
      "name": "beforeAgreementCreated",
      "outputs": [
        {
          "internalType": "bytes",
          "name": "",
          "type": "bytes"
        }
      ],
      "stateMutability": "pure",
      "type": "function"
    },
    {
      "inputs": [
        {
          "internalType": "contract ISuperToken",
          "name": "superToken",
          "type": "address"
        },
        {
          "internalType": "address",
          "name": "agreementClass",
          "type": "address"
        },
        {
          "internalType": "bytes32",
          "name": "",
          "type": "bytes32"
        },
        {
          "internalType": "bytes",
          "name": "agreementData",
          "type": "bytes"
        },
        {
          "internalType": "bytes",
          "name": "",
          "type": "bytes"
        }
      ],
      "name": "beforeAgreementTerminated",
      "outputs": [
        {
          "internalType": "bytes",
          "name": "",
          "type": "bytes"
        }
      ],
      "stateMutability": "view",
      "type": "function"
    },
    {
      "inputs": [
        {
          "internalType": "contract ISuperToken",
          "name": "superToken",
          "type": "address"
        },
        {
          "internalType": "address",
          "name": "agreementClass",
          "type": "address"
        },
        {
          "internalType": "bytes32",
          "name": "",
          "type": "bytes32"
        },
        {
          "internalType": "bytes",
          "name": "agreementData",
          "type": "bytes"
        },
        {
          "internalType": "bytes",
          "name": "",
          "type": "bytes"
        }
      ],
      "name": "beforeAgreementUpdated",
      "outputs": [
        {
          "internalType": "bytes",
          "name": "",
          "type": "bytes"
        }
      ],
      "stateMutability": "view",
      "type": "function"
    },
    {
      "inputs": [],
      "name": "campaignCID",
      "outputs": [
        {
          "internalType": "string",
          "name": "",
          "type": "string"
        }
      ],
      "stateMutability": "view",
      "type": "function"
    },
    {
      "inputs": [],
      "name": "createdAt",
      "outputs": [
        {
          "internalType": "uint256",
          "name": "",
          "type": "uint256"
        }
      ],
      "stateMutability": "view",
      "type": "function"
    },
    {
      "inputs": [],
      "name": "currentReceiver",
      "outputs": [
        {
          "internalType": "uint256",
          "name": "startTime",
          "type": "uint256"
        },
        {
          "internalType": "address",
          "name": "receiver",
          "type": "address"
        },
        {
          "internalType": "int96",
          "name": "flowRate",
          "type": "int96"
        }
      ],
      "stateMutability": "view",
      "type": "function"
    },
    {
      "inputs": [],
      "name": "cusd",
      "outputs": [
        {
          "internalType": "contract IERC20",
          "name": "",
          "type": "address"
        }
      ],
      "stateMutability": "view",
      "type": "function"
    },
    {
      "inputs": [],
      "name": "host",
      "outputs": [
        {
          "internalType": "contract ISuperfluid",
          "name": "",
          "type": "address"
        }
      ],
      "stateMutability": "view",
      "type": "function"
    },
    {
      "inputs": [],
      "name": "id",
      "outputs": [
        {
          "internalType": "uint256",
          "name": "",
          "type": "uint256"
        }
      ],
      "stateMutability": "view",
      "type": "function"
    },
    {
      "inputs": [
        {
          "internalType": "contract ISuperToken",
          "name": "superToken",
          "type": "address"
        }
      ],
      "name": "isAcceptedSuperToken",
      "outputs": [
        {
          "internalType": "bool",
          "name": "",
          "type": "bool"
        }
      ],
      "stateMutability": "view",
      "type": "function"
    },
    {
      "inputs": [],
      "name": "owner",
      "outputs": [
        {
          "internalType": "address",
          "name": "",
          "type": "address"
        }
      ],
      "stateMutability": "view",
      "type": "function"
    },
    {
      "inputs": [],
      "name": "raisedFunds",
      "outputs": [
        {
          "internalType": "uint256",
          "name": "",
          "type": "uint256"
        }
      ],
      "stateMutability": "view",
      "type": "function"
    },
    {
      "inputs": [],
      "name": "target",
      "outputs": [
        {
          "internalType": "uint256",
          "name": "",
          "type": "uint256"
        }
      ],
      "stateMutability": "view",
      "type": "function"
    },
    {
      "inputs": [
        {
          "internalType": "uint256",
          "name": "amount",
          "type": "uint256"
        }
      ],
      "name": "withdraw",
      "outputs": [],
      "stateMutability": "nonpayable",
      "type": "function"
    },
    {
      "stateMutability": "payable",
      "type": "receive"
    }
  ],
  "bytecode": "0x60a06040523480156200001157600080fd5b5060405162001f6138038062001f618339810160408190526200003491620001a9565b600080546001600160a01b0319166001600160a01b0385161790558183898160018080640100000001826200006b57640c00000000175b816200007957643000000000175b6040516315a722b960e31b8152600481018290526001600160a01b0386169063ad3915c890602401600060405180830381600087803b158015620000bc57600080fd5b505af1158015620000d1573d6000803e3d6000fd5b5050506001600160a01b039889166080525050600080549688166001600160a01b031997881617905550506001805493861693851693909317909255505060028054928b169290911691909117905560036200012e888262000378565b506005959095555050600791909155600455600880546001600160a01b0319166001600160a01b0390921691909117905550620004449050565b6001600160a01b03811681146200017e57600080fd5b50565b634e487b7160e01b600052604160045260246000fd5b8051620001a48162000168565b919050565b600080600080600080600080610100898b031215620001c757600080fd5b8851620001d48162000168565b60208a810151919950906001600160401b0380821115620001f457600080fd5b818c0191508c601f8301126200020957600080fd5b8151818111156200021e576200021e62000181565b604051601f8201601f19908116603f0116810190838211818310171562000249576200024962000181565b816040528281528f868487010111156200026257600080fd5b600093505b8284101562000286578484018601518185018701529285019262000267565b6000868483010152809c50505050505050604089015195506060890151945060808901519350620002ba60a08a0162000197565b9250620002ca60c08a0162000197565b9150620002da60e08a0162000197565b90509295985092959890939650565b600181811c90821680620002fe57607f821691505b6020821081036200031f57634e487b7160e01b600052602260045260246000fd5b50919050565b601f8211156200037357600081815260208120601f850160051c810160208610156200034e5750805b601f850160051c820191505b818110156200036f578281556001016200035a565b5050505b505050565b81516001600160401b0381111562000394576200039462000181565b620003ac81620003a58454620002e9565b8462000325565b602080601f831160018114620003e45760008415620003cb5750858301515b600019600386901b1c1916600185901b1785556200036f565b600085815260208120601f198616915b828110156200041557888601518255948401946001909101908401620003f4565b5085821015620004345787850151600019600388901b60f8161c191681555b5050505050600190811b01905550565b608051611ade62000483600039600081816108a601528181610c3a01528181610c7901528181610d0f01528181610d9b0152610e150152611ade6000f3fe6080604052600436106101185760003560e01c806372ca8a3e116100a0578063cf09e0d011610064578063cf09e0d014610327578063d4b839921461033d578063d86ed3e514610353578063dfb8dca914610373578063f437bc591461038957600080fd5b806372ca8a3e14610271578063884d1f40146102a15780638da5cb5b146102c1578063af640d0f146102e1578063bcb4546f1461030557600080fd5b80632e1a7d4d116100e75780632e1a7d4d146101da57806330d9c915146101fc57806339c80ab11461021c57806353c11f99146102315780635f9e7d771461025157600080fd5b806302964ff1146101245780630c577bdc14610161578063230dbd291461018157806328d2bf94146101ae57600080fd5b3661011f57005b600080fd5b34801561013057600080fd5b50600154610144906001600160a01b031681565b6040516001600160a01b0390911681526020015b60405180910390f35b34801561016d57600080fd5b50600854610144906001600160a01b031681565b34801561018d57600080fd5b506101a161019c3660046114de565b6103a9565b60405161015891906115f9565b3480156101ba57600080fd5b506040805160008082526020820181905291810191909152606001610158565b3480156101e657600080fd5b506101fa6101f5366004611613565b61048e565b005b34801561020857600080fd5b506101a161021736600461162c565b610669565b34801561022857600080fd5b506101a161068e565b34801561023d57600080fd5b506101a161024c3660046114de565b61071c565b34801561025d57600080fd5b506101a161026c36600461162c565b6107dc565b34801561027d57600080fd5b5061029161028c3660046116cb565b6108a4565b6040519015158152602001610158565b3480156102ad57600080fd5b506101a16102bc36600461162c565b6108d6565b3480156102cd57600080fd5b50600254610144906001600160a01b031681565b3480156102ed57600080fd5b506102f760045481565b604051908152602001610158565b34801561031157600080fd5b506102f7600080516020611a8983398151915281565b34801561033357600080fd5b506102f760055481565b34801561034957600080fd5b506102f760075481565b34801561035f57600080fd5b506101a161036e3660046114de565b6109b6565b34801561037f57600080fd5b506102f760065481565b34801561039557600080fd5b50600054610144906001600160a01b031681565b6000546060906001600160a01b031633146103d757604051632f2d36a760e01b815260040160405180910390fd5b6103e089610a82565b6104235782828080601f01602080910402602001604051908101604052809392919081815260200183838082843760009201919091525092935061048192505050565b61042c8a6108a4565b61044957604051631ea25bab60e31b815260040160405180910390fd5b6000610457878901896116e8565b50905060008061046987890189611730565b9150915061047b8d8484848a8a610b18565b93505050505b9998505050505050505050565b600081116104e35760405162461bcd60e51b815260206004820152601d60248201527f416d6f756e74206d7573742062652067726561746572207468616e203000000060448201526064015b60405180910390fd5b6002546001600160a01b031632146105355760405162461bcd60e51b81526020600482015260156024820152743cb7ba9030b932903737ba103a34329037bbb732b960591b60448201526064016104da565b6008546040516370a0823160e01b81523060048201526000916001600160a01b0316906370a0823190602401602060405180830381865afa15801561057e573d6000803e3d6000fd5b505050506040513d601f19601f820116820180604052508101906105a2919061175c565b9050808211156105eb5760405162461bcd60e51b8152602060048201526014602482015273496e73756666696369656e742062616c616e636560601b60448201526064016104da565b60085460025460405163a9059cbb60e01b81526001600160a01b0391821660048201526024810185905291169063a9059cbb906044016020604051808303816000875af1158015610640573d6000803e3d6000fd5b505050506040513d601f19601f820116820180604052508101906106649190611775565b505050565b604080518082019091526002815261060f60f31b60208201525b979650505050505050565b6003805461069b90611797565b80601f01602080910402602001604051908101604052809291908181526020018280546106c790611797565b80156107145780601f106106e957610100808354040283529160200191610714565b820191906000526020600020905b8154815290600101906020018083116106f757829003601f168201915b505050505081565b6000546060906001600160a01b03163314158061073f575061073d89610a82565b155b80610750575061074e8a6108a4565b155b156107945782828080601f01602080910402602001604051908101604052809392919081815260200183838082843760009201919091525092935061048192505050565b6000806107a3888a018a6116e8565b90925090506000806107b7888a018a6117d1565b915091506107ca8e858584868c8c610bc6565b9e9d5050505050505050505050505050565b6000546060906001600160a01b0316331415806107ff57506107fd87610a82565b155b80610810575061080e886108a4565b155b156108345750604080518082019091526002815261060f60f31b6020820152610683565b600080610843868801886116e8565b909250905060008061085f6001600160a01b038d168585610b24565b5050915091508181604051602001610884929190918252600b0b602082015260400190565b604051602081830303815290604052945050505050979650505050505050565b7f00000000000000000000000000000000000000000000000000000000000000006001600160a01b0390811691161490565b6000546060906001600160a01b0316331461090457604051632f2d36a760e01b815260040160405180910390fd5b61090d87610a82565b6109305750604080518082019091526002815261060f60f31b6020820152610683565b610939886108a4565b61095657604051631ea25bab60e31b815260040160405180910390fd5b6000610964858701876116e8565b50905060008061097e6001600160a01b038c168430610b24565b505060408051600b9290920b60208301528181019290925281518082038301815260609091019091529b9a5050505050505050505050565b6000546060906001600160a01b031633146109e457604051632f2d36a760e01b815260040160405180910390fd5b6109ed89610a82565b610a305782828080601f01602080910402602001604051908101604052809392919081815260200183838082843760009201919091525092935061048192505050565b610a398a6108a4565b610a5657604051631ea25bab60e31b815260040160405180910390fd5b6000610a64878901896116e8565b509050610a738b828686610bde565b9b9a5050505050505050505050565b60008054604051635b69006f60e11b8152600080516020611a8983398151915260048201526001600160a01b039091169063b6d200de90602401602060405180830381865afa158015610ad9573d6000803e3d6000fd5b505050506040513d601f19601f82011682018060405250810190610afd91906117f6565b6001600160a01b0316826001600160a01b0316149050919050565b60606106838383610bf3565b6000806000806000610b3588610e4c565b604051631cd43d1160e31b81526001600160a01b038b811660048301528a811660248301528981166044830152919350908316915063e6a1e88890606401608060405180830381865afa158015610b90573d6000803e3d6000fd5b505050506040513d601f19601f82011682018060405250810190610bb49190611813565b929b919a509850909650945050505050565b6060610bd28383610bf3565b98975050505050505050565b6060610bea8383610bf3565b95945050505050565b606082828080601f0160208091040260200160405190810160405280939291908181526020018383808284376000920182905250939450610c629250506001600160a01b037f000000000000000000000000000000000000000000000000000000000000000016905030610fbb565b600154909150600090610ca3906001600160a01b037f0000000000000000000000000000000000000000000000000000000000000000811691309116611048565b90506000610cb18284611851565b905080600b0b600003610d4157600154604080516020601f8901819004810282018101909252878152610d3a9230926001600160a01b0390911691908a908a9081908401838280828437600092019190915250506001600160a01b037f0000000000000000000000000000000000000000000000000000000000000000169493929150506110e0565b9350610e43565b81600b0b600014610dc657600154604080516020601f8901819004810282018101909252878152610d3a926001600160a01b0316918491908a908a9081908401838280828437600092019190915250506001600160a01b037f00000000000000000000000000000000000000000000000000000000000000001694939291505061120a565b600154604080516020601f8901819004810282018101909252878152610e40926001600160a01b0316918491908a908a9081908401838280828437600092019190915250506001600160a01b037f000000000000000000000000000000000000000000000000000000000000000016949392915050611296565b93505b50505092915050565b7f65599bf746e17a00ea62e3610586992d88101b78eec3cf380706621fb97ea837547fb969d79d88acd02d04ed7ee7d43b949e7daf093d363abcfbbc43dfdfd1ce969a546001600160a01b038116610f8a576001600160a01b038216610f1157826001600160a01b03166320bc44256040518163ffffffff1660e01b8152600401602060405180830381865afa158015610eea573d6000803e3d6000fd5b505050506040513d601f19601f82011682018060405250810190610f0e91906117f6565b91505b604051635b69006f60e11b8152600080516020611a8983398151915260048201526001600160a01b0383169063b6d200de90602401602060405180830381865afa158015610f63573d6000803e3d6000fd5b505050506040513d601f19601f82011682018060405250810190610f8791906117f6565b90505b6001600160a01b038216610fa057610fa0611896565b6001600160a01b038116610fb657610fb6611896565b915091565b600080610fc784610e4c565b60405163e8e7e2d160e01b81526001600160a01b0387811660048301528681166024830152919350908316915063e8e7e2d190604401602060405180830381865afa15801561101a573d6000803e3d6000fd5b505050506040513d601f19601f8201168201806040525081019061103e91906118ac565b9150505b92915050565b60008061105485610e4c565b604051631cd43d1160e31b81526001600160a01b03888116600483015287811660248301528681166044830152919350908316915063e6a1e88890606401608060405180830381865afa1580156110af573d6000803e3d6000fd5b505050506040513d601f19601f820116820180604052508101906110d39190611813565b5090979650505050505050565b60606000806110ee876112e4565b91509150816001600160a01b0316634329d29382836001600160a01b031663b4b333c68b8b8b600067ffffffffffffffff81111561112e5761112e6118c9565b6040519080825280601f01601f191660200182016040528015611158576020820181803683370190505b5060405160240161116c94939291906118df565b60408051808303601f1901815291815260208201805160e094851b6001600160e01b03909116179052519185901b6001600160e01b03191682526111b793925090899060040161191d565b6000604051808303816000875af11580156111d6573d6000803e3d6000fd5b505050506040513d6000823e601f3d908101601f191682016040526111fe91908101906119ee565b50979650505050505050565b6060600080611218876112e4565b91509150816001600160a01b0316634329d29382836001600160a01b03166350209a628b8b8b600067ffffffffffffffff811115611258576112586118c9565b6040519080825280601f01601f191660200182016040528015611282576020820181803683370190505b5060405160240161116c9493929190611a52565b60606000806112a4876112e4565b91509150816001600160a01b0316634329d29382836001600160a01b03166362fc305e8b8b8b600067ffffffffffffffff811115611258576112586118c9565b7f65599bf746e17a00ea62e3610586992d88101b78eec3cf380706621fb97ea837547fb969d79d88acd02d04ed7ee7d43b949e7daf093d363abcfbbc43dfdfd1ce969a546001600160a01b038116610f8a576001600160a01b0382166113a957826001600160a01b03166320bc44256040518163ffffffff1660e01b8152600401602060405180830381865afa158015611382573d6000803e3d6000fd5b505050506040513d601f19601f820116820180604052508101906113a691906117f6565b91505b604051635b69006f60e11b8152600080516020611a8983398151915260048201526001600160a01b0383169063b6d200de90602401602060405180830381865afa1580156113fb573d6000803e3d6000fd5b505050506040513d601f19601f8201168201806040525081019061141f91906117f6565b9050817f65599bf746e17a00ea62e3610586992d88101b78eec3cf380706621fb97ea83755807fb969d79d88acd02d04ed7ee7d43b949e7daf093d363abcfbbc43dfdfd1ce969a556001600160a01b038216610fa057610fa0611896565b6001600160a01b038116811461149257600080fd5b50565b60008083601f8401126114a757600080fd5b50813567ffffffffffffffff8111156114bf57600080fd5b6020830191508360208285010111156114d757600080fd5b9250929050565b600080600080600080600080600060c08a8c0312156114fc57600080fd5b89356115078161147d565b985060208a01356115178161147d565b975060408a0135965060608a013567ffffffffffffffff8082111561153b57600080fd5b6115478d838e01611495565b909850965060808c013591508082111561156057600080fd5b61156c8d838e01611495565b909650945060a08c013591508082111561158557600080fd5b506115928c828d01611495565b915080935050809150509295985092959850929598565b60005b838110156115c45781810151838201526020016115ac565b50506000910152565b600081518084526115e58160208601602086016115a9565b601f01601f19169290920160200192915050565b60208152600061160c60208301846115cd565b9392505050565b60006020828403121561162557600080fd5b5035919050565b600080600080600080600060a0888a03121561164757600080fd5b87356116528161147d565b965060208801356116628161147d565b955060408801359450606088013567ffffffffffffffff8082111561168657600080fd5b6116928b838c01611495565b909650945060808a01359150808211156116ab57600080fd5b506116b88a828b01611495565b989b979a50959850939692959293505050565b6000602082840312156116dd57600080fd5b813561160c8161147d565b600080604083850312156116fb57600080fd5b82356117068161147d565b915060208301356117168161147d565b809150509250929050565b80600b0b811461149257600080fd5b6000806040838503121561174357600080fd5b823561174e81611721565b946020939093013593505050565b60006020828403121561176e57600080fd5b5051919050565b60006020828403121561178757600080fd5b8151801515811461160c57600080fd5b600181811c908216806117ab57607f821691505b6020821081036117cb57634e487b7160e01b600052602260045260246000fd5b50919050565b600080604083850312156117e457600080fd5b82359150602083013561171681611721565b60006020828403121561180857600080fd5b815161160c8161147d565b6000806000806080858703121561182957600080fd5b84519350602085015161183b81611721565b6040860151606090960151949790965092505050565b600b81810b9083900b016b7fffffffffffffffffffffff81136b7fffffffffffffffffffffff198212171561104257634e487b7160e01b600052601160045260246000fd5b634e487b7160e01b600052600160045260246000fd5b6000602082840312156118be57600080fd5b815161160c81611721565b634e487b7160e01b600052604160045260246000fd5b6001600160a01b038581168252848116602083015283166040820152608060608201819052600090611913908301846115cd565b9695505050505050565b6001600160a01b0384168152608060208201819052600090611941908301856115cd565b8281038060408501526002825261060f60f31b60208301526040810160608501525061191360408201856115cd565b600082601f83011261198157600080fd5b815167ffffffffffffffff8082111561199c5761199c6118c9565b604051601f8301601f19908116603f011681019082821181831017156119c4576119c46118c9565b816040528381528660208588010111156119dd57600080fd5b6119138460208301602089016115a9565b60008060408385031215611a0157600080fd5b825167ffffffffffffffff80821115611a1957600080fd5b611a2586838701611970565b93506020850151915080821115611a3b57600080fd5b50611a4885828601611970565b9150509250929050565b6001600160a01b03858116825284166020820152600b83900b6040820152608060608201819052600090611913908301846115cd56fea9214cc96615e0085d3bb077758db69497dc2dce3b2b1e97bc93c3d18d83efd3a2646970667358221220c9a1f533f2e8d1cc32890d89a78a88dc209cf0aa7c9b18f6e18555adb7455b8164736f6c63430008120033",
  "linkReferences": {},
  "deployedLinkReferences": {}
}