{
  "_format": "hh-sol-artifact-1",
  "contractName": "CampaignManager",
  "sourceName": "contracts/CampaignManager.sol",
  "abi": [
    {
      "inputs": [
        {
          "internalType": "contract IERC20",
          "name": "_cusd",
          "type": "address"
        },
        {
          "internalType": "contract ISuperToken",
          "name": "_cusdX",
          "type": "address"
        },
        {
          "internalType": "contract ISuperfluid",
          "name": "_host",
          "type": "address"
        }
      ],
      "stateMutability": "nonpayable",
      "type": "constructor"
    },
    {
      "anonymous": false,
      "inputs": [
        {
          "indexed": false,
          "internalType": "uint256",
          "name": "campaignId",
          "type": "uint256"
        }
      ],
      "name": "CampaignCreated",
      "type": "event"
    },
    {
      "anonymous": false,
      "inputs": [
        {
          "indexed": true,
          "internalType": "address",
          "name": "sender",
          "type": "address"
        },
        {
          "indexed": true,
          "internalType": "address",
          "name": "tokenAddress",
          "type": "address"
        },
        {
          "indexed": false,
          "internalType": "uint256",
          "name": "amount",
          "type": "uint256"
        }
      ],
      "name": "Deposit",
      "type": "event"
    },
    {
      "anonymous": false,
      "inputs": [
        {
          "indexed": true,
          "internalType": "address",
          "name": "previousOwner",
          "type": "address"
        },
        {
          "indexed": true,
          "internalType": "address",
          "name": "newOwner",
          "type": "address"
        }
      ],
      "name": "OwnershipTransferred",
      "type": "event"
    },
    {
      "anonymous": false,
      "inputs": [
        {
          "indexed": false,
          "internalType": "uint256",
          "name": "campaignId",
          "type": "uint256"
        }
      ],
      "name": "campaignRemoved",
      "type": "event"
    },
    {
      "inputs": [
        {
          "internalType": "uint256",
          "name": "",
          "type": "uint256"
        }
      ],
      "name": "_ALL_DONORS",
      "outputs": [
        {
          "internalType": "address",
          "name": "donorAddress",
          "type": "address"
        },
        {
          "internalType": "uint256",
          "name": "amountDonated",
          "type": "uint256"
        }
      ],
      "stateMutability": "view",
      "type": "function"
    },
    {
      "inputs": [
        {
          "internalType": "address",
          "name": "_account",
          "type": "address"
        }
      ],
      "name": "_isDAOMember",
      "outputs": [
        {
          "internalType": "bool",
          "name": "result",
          "type": "bool"
        }
      ],
      "stateMutability": "view",
      "type": "function"
    },
    {
      "inputs": [
        {
          "internalType": "uint256",
          "name": "",
          "type": "uint256"
        }
      ],
      "name": "allCampaignIds",
      "outputs": [
        {
          "internalType": "uint256",
          "name": "",
          "type": "uint256"
        }
      ],
      "stateMutability": "view",
      "type": "function"
    },
    {
      "inputs": [
        {
          "internalType": "uint256",
          "name": "",
          "type": "uint256"
        }
      ],
      "name": "allDAOMembers",
      "outputs": [
        {
          "internalType": "address",
          "name": "",
          "type": "address"
        }
      ],
      "stateMutability": "view",
      "type": "function"
    },
    {
      "inputs": [
        {
          "internalType": "uint256",
          "name": "",
          "type": "uint256"
        }
      ],
      "name": "allSbtIds",
      "outputs": [
        {
          "internalType": "uint256",
          "name": "",
          "type": "uint256"
        }
      ],
      "stateMutability": "view",
      "type": "function"
    },
    {
      "inputs": [],
      "name": "campaignIdCounter",
      "outputs": [
        {
          "internalType": "uint256",
          "name": "",
          "type": "uint256"
        }
      ],
      "stateMutability": "view",
      "type": "function"
    },
    {
      "inputs": [
        {
          "internalType": "uint256",
          "name": "",
          "type": "uint256"
        },
        {
          "internalType": "uint256",
          "name": "",
          "type": "uint256"
        }
      ],
      "name": "campaignIdToDonors",
      "outputs": [
        {
          "internalType": "address",
          "name": "donorAddress",
          "type": "address"
        },
        {
          "internalType": "uint256",
          "name": "amountDonated",
          "type": "uint256"
        }
      ],
      "stateMutability": "view",
      "type": "function"
    },
    {
      "inputs": [
        {
          "internalType": "uint256",
          "name": "",
          "type": "uint256"
        }
      ],
      "name": "campaignIdToOwner",
      "outputs": [
        {
          "internalType": "address",
          "name": "",
          "type": "address"
        }
      ],
      "stateMutability": "view",
      "type": "function"
    },
    {
      "inputs": [
        {
          "internalType": "contract Campaign",
          "name": "",
          "type": "address"
        }
      ],
      "name": "campaignToIds",
      "outputs": [
        {
          "internalType": "uint256",
          "name": "",
          "type": "uint256"
        }
      ],
      "stateMutability": "view",
      "type": "function"
    },
    {
      "inputs": [
        {
          "internalType": "uint256",
          "name": "_campaignId",
          "type": "uint256"
        },
        {
          "internalType": "uint256",
          "name": "amount",
          "type": "uint256"
        }
      ],
      "name": "claim",
      "outputs": [],
      "stateMutability": "nonpayable",
      "type": "function"
    },
    {
      "inputs": [
        {
          "internalType": "string",
          "name": "_campaignCID",
          "type": "string"
        },
        {
          "internalType": "uint256",
          "name": "_target",
          "type": "uint256"
        }
      ],
      "name": "createCampaign",
      "outputs": [
        {
          "internalType": "uint256",
          "name": "",
          "type": "uint256"
        }
      ],
      "stateMutability": "nonpayable",
      "type": "function"
    },
    {
      "inputs": [
        {
          "internalType": "contract ISuperToken",
          "name": "_token",
          "type": "address"
        },
        {
          "internalType": "int96",
          "name": "flowRate",
          "type": "int96"
        },
        {
          "internalType": "address",
          "name": "_receiver",
          "type": "address"
        }
      ],
      "name": "createFlowFromSender",
      "outputs": [],
      "stateMutability": "nonpayable",
      "type": "function"
    },
    {
      "inputs": [],
      "name": "cusd",
      "outputs": [
        {
          "internalType": "contract IERC20",
          "name": "",
          "type": "address"
        }
      ],
      "stateMutability": "view",
      "type": "function"
    },
    {
      "inputs": [],
      "name": "cusdX",
      "outputs": [
        {
          "internalType": "contract ISuperToken",
          "name": "",
          "type": "address"
        }
      ],
      "stateMutability": "view",
      "type": "function"
    },
    {
      "inputs": [
        {
          "internalType": "address",
          "name": "",
          "type": "address"
        }
      ],
      "name": "daoMemberToId",
      "outputs": [
        {
          "internalType": "uint256",
          "name": "",
          "type": "uint256"
        }
      ],
      "stateMutability": "view",
      "type": "function"
    },
    {
      "inputs": [
        {
          "internalType": "contract ISuperToken",
          "name": "token",
          "type": "address"
        },
        {
          "internalType": "address",
          "name": "receiver",
          "type": "address"
        }
      ],
      "name": "deleteFlowFromSender",
      "outputs": [],
      "stateMutability": "nonpayable",
      "type": "function"
    },
    {
      "inputs": [
        {
          "internalType": "uint256",
          "name": "_campaignId",
          "type": "uint256"
        },
        {
          "internalType": "uint256",
          "name": "_amount",
          "type": "uint256"
        }
      ],
      "name": "donate",
      "outputs": [],
      "stateMutability": "payable",
      "type": "function"
    },
    {
      "inputs": [
        {
          "internalType": "contract Campaign",
          "name": "",
          "type": "address"
        }
      ],
      "name": "donors",
      "outputs": [
        {
          "internalType": "address",
          "name": "donorAddress",
          "type": "address"
        },
        {
          "internalType": "uint256",
          "name": "amountDonated",
          "type": "uint256"
        }
      ],
      "stateMutability": "view",
      "type": "function"
    },
    {
      "inputs": [
        {
          "internalType": "uint256",
          "name": "_amount",
          "type": "uint256"
        }
      ],
      "name": "downgradeCUSDx",
      "outputs": [],
      "stateMutability": "nonpayable",
      "type": "function"
    },
    {
      "inputs": [
        {
          "internalType": "address",
          "name": "account",
          "type": "address"
        }
      ],
      "name": "getAddressBalance",
      "outputs": [
        {
          "internalType": "uint256",
          "name": "",
          "type": "uint256"
        }
      ],
      "stateMutability": "view",
      "type": "function"
    },
    {
      "inputs": [],
      "name": "getAllCampaignIds",
      "outputs": [
        {
          "internalType": "uint256[]",
          "name": "_allCampaignIds",
          "type": "uint256[]"
        }
      ],
      "stateMutability": "view",
      "type": "function"
    },
    {
      "inputs": [],
      "name": "getAllCampaigns",
      "outputs": [
        {
          "internalType": "contract Campaign[]",
          "name": "_allCampaigns",
          "type": "address[]"
        }
      ],
      "stateMutability": "view",
      "type": "function"
    },
    {
      "inputs": [],
      "name": "getAllDAOMembers",
      "outputs": [
        {
          "internalType": "address[]",
          "name": "_allDAOMembers",
          "type": "address[]"
        }
      ],
      "stateMutability": "view",
      "type": "function"
    },
    {
      "inputs": [],
      "name": "getAllDonors",
      "outputs": [
        {
          "components": [
            {
              "internalType": "address",
              "name": "donorAddress",
              "type": "address"
            },
            {
              "internalType": "uint256",
              "name": "amountDonated",
              "type": "uint256"
            }
          ],
          "internalType": "struct CampaignManager.Donors[]",
          "name": "_allDonorsData",
          "type": "tuple[]"
        }
      ],
      "stateMutability": "view",
      "type": "function"
    },
    {
      "inputs": [
        {
          "internalType": "address",
          "name": "_cusdAddr",
          "type": "address"
        },
        {
          "internalType": "address",
          "name": "account",
          "type": "address"
        }
      ],
      "name": "getBalance",
      "outputs": [
        {
          "internalType": "uint256",
          "name": "_balance",
          "type": "uint256"
        }
      ],
      "stateMutability": "view",
      "type": "function"
    },
    {
      "inputs": [
        {
          "internalType": "uint256",
          "name": "_campaignId",
          "type": "uint256"
        }
      ],
      "name": "getCampaignOwner",
      "outputs": [
        {
          "internalType": "address",
          "name": "owner",
          "type": "address"
        }
      ],
      "stateMutability": "view",
      "type": "function"
    },
    {
      "inputs": [
        {
          "internalType": "uint256",
          "name": "_sbtId",
          "type": "uint256"
        }
      ],
      "name": "getDAOMemberAddress",
      "outputs": [
        {
          "internalType": "address",
          "name": "_daoMember",
          "type": "address"
        }
      ],
      "stateMutability": "view",
      "type": "function"
    },
    {
      "inputs": [
        {
          "internalType": "address",
          "name": "_account",
          "type": "address"
        }
      ],
      "name": "getDAOMemberId",
      "outputs": [
        {
          "internalType": "uint256",
          "name": "_memberId",
          "type": "uint256"
        }
      ],
      "stateMutability": "view",
      "type": "function"
    },
    {
      "inputs": [],
      "name": "getOwnerCampaigns",
      "outputs": [
        {
          "internalType": "contract Campaign[]",
          "name": "_allOwnerCampaigns",
          "type": "address[]"
        }
      ],
      "stateMutability": "view",
      "type": "function"
    },
    {
      "inputs": [],
      "name": "getOwnerIds",
      "outputs": [
        {
          "internalType": "uint256[]",
          "name": "_allOwnerIds",
          "type": "uint256[]"
        }
      ],
      "stateMutability": "view",
      "type": "function"
    },
    {
      "inputs": [
        {
          "internalType": "uint256",
          "name": "_campaignId",
          "type": "uint256"
        }
      ],
      "name": "getParticularCampaign",
      "outputs": [
        {
          "internalType": "contract Campaign",
          "name": "_campaign",
          "type": "address"
        }
      ],
      "stateMutability": "view",
      "type": "function"
    },
    {
      "inputs": [
        {
          "internalType": "uint256",
          "name": "_campaignId",
          "type": "uint256"
        }
      ],
      "name": "getParticularCampaignDonors",
      "outputs": [
        {
          "components": [
            {
              "internalType": "address",
              "name": "donorAddress",
              "type": "address"
            },
            {
              "internalType": "uint256",
              "name": "amountDonated",
              "type": "uint256"
            }
          ],
          "internalType": "struct CampaignManager.Donors[]",
          "name": "_donors",
          "type": "tuple[]"
        }
      ],
      "stateMutability": "view",
      "type": "function"
    },
    {
      "inputs": [
        {
          "internalType": "contract Campaign",
          "name": "campaign",
          "type": "address"
        }
      ],
      "name": "getParticularCampaignId",
      "outputs": [
        {
          "internalType": "uint256",
          "name": "_campaignId",
          "type": "uint256"
        }
      ],
      "stateMutability": "view",
      "type": "function"
    },
    {
      "inputs": [
        {
          "internalType": "uint256",
          "name": "",
          "type": "uint256"
        }
      ],
      "name": "idToCampaigns",
      "outputs": [
        {
          "internalType": "contract Campaign",
          "name": "",
          "type": "address"
        }
      ],
      "stateMutability": "view",
      "type": "function"
    },
    {
      "inputs": [
        {
          "internalType": "uint256",
          "name": "",
          "type": "uint256"
        }
      ],
      "name": "isCampaignVerified",
      "outputs": [
        {
          "internalType": "bool",
          "name": "",
          "type": "bool"
        }
      ],
      "stateMutability": "view",
      "type": "function"
    },
    {
      "inputs": [
        {
          "internalType": "address",
          "name": "",
          "type": "address"
        }
      ],
      "name": "isDAOMember",
      "outputs": [
        {
          "internalType": "bool",
          "name": "",
          "type": "bool"
        }
      ],
      "stateMutability": "view",
      "type": "function"
    },
    {
      "inputs": [],
      "name": "joinDAO",
      "outputs": [],
      "stateMutability": "nonpayable",
      "type": "function"
    },
    {
      "inputs": [],
      "name": "owner",
      "outputs": [
        {
          "internalType": "address",
          "name": "",
          "type": "address"
        }
      ],
      "stateMutability": "view",
      "type": "function"
    },
    {
      "inputs": [
        {
          "internalType": "address",
          "name": "",
          "type": "address"
        },
        {
          "internalType": "uint256",
          "name": "",
          "type": "uint256"
        }
      ],
      "name": "ownerToCampaignIds",
      "outputs": [
        {
          "internalType": "uint256",
          "name": "",
          "type": "uint256"
        }
      ],
      "stateMutability": "view",
      "type": "function"
    },
    {
      "inputs": [
        {
          "internalType": "address",
          "name": "",
          "type": "address"
        },
        {
          "internalType": "uint256",
          "name": "",
          "type": "uint256"
        }
      ],
      "name": "ownerToCampaigns",
      "outputs": [
        {
          "internalType": "contract Campaign",
          "name": "",
          "type": "address"
        }
      ],
      "stateMutability": "view",
      "type": "function"
    },
    {
      "inputs": [
        {
          "internalType": "contract Campaign",
          "name": "campaign",
          "type": "address"
        }
      ],
      "name": "removeCampaignAddr",
      "outputs": [],
      "stateMutability": "nonpayable",
      "type": "function"
    },
    {
      "inputs": [],
      "name": "renounceOwnership",
      "outputs": [],
      "stateMutability": "nonpayable",
      "type": "function"
    },
    {
      "inputs": [
        {
          "internalType": "uint256",
          "name": "",
          "type": "uint256"
        }
      ],
      "name": "sbtIdToDaoMember",
      "outputs": [
        {
          "internalType": "address",
          "name": "",
          "type": "address"
        }
      ],
      "stateMutability": "view",
      "type": "function"
    },
    {
      "inputs": [
        {
          "internalType": "contract ISuperToken",
          "name": "token",
          "type": "address"
        },
        {
          "internalType": "uint256",
          "name": "amount",
          "type": "uint256"
        }
      ],
      "name": "sendLumpSumToContract",
      "outputs": [],
      "stateMutability": "nonpayable",
      "type": "function"
    },
    {
      "inputs": [
        {
          "internalType": "address",
          "name": "newOwner",
          "type": "address"
        }
      ],
      "name": "transferOwnership",
      "outputs": [],
      "stateMutability": "nonpayable",
      "type": "function"
    },
    {
      "inputs": [
        {
          "internalType": "contract ISuperToken",
          "name": "token",
          "type": "address"
        },
        {
          "internalType": "address",
          "name": "receiver",
          "type": "address"
        },
        {
          "internalType": "int96",
          "name": "flowRate",
          "type": "int96"
        }
      ],
      "name": "updateFlowFromSender",
      "outputs": [],
      "stateMutability": "nonpayable",
      "type": "function"
    },
    {
      "inputs": [
        {
          "internalType": "uint256",
          "name": "_amount",
          "type": "uint256"
        }
      ],
      "name": "upgradeCUSD",
      "outputs": [],
      "stateMutability": "nonpayable",
      "type": "function"
    },
    {
      "inputs": [
        {
          "internalType": "uint256",
          "name": "_campaignId",
          "type": "uint256"
        }
      ],
      "name": "verifyCampaign",
      "outputs": [],
      "stateMutability": "nonpayable",
      "type": "function"
    }
  ],
  "bytecode": "0x60a060405260016004553480156200001657600080fd5b50604051620046e8380380620046e88339810160408190526200003991620000e7565b62000044336200007e565b600280546001600160a01b03199081166001600160a01b03958616179091556003805490911692841692909217909155166080526200013b565b600080546001600160a01b038381166001600160a01b0319831681178455604051919092169283917f8be0079c531659141344cd1fd0a4f28419497f9722a3daafe3b4186f6b6457e09190a35050565b6001600160a01b0381168114620000e457600080fd5b50565b600080600060608486031215620000fd57600080fd5b83516200010a81620000ce565b60208501519093506200011d81620000ce565b60408501519092506200013081620000ce565b809150509250925092565b6080516145916200015760003960006114cb01526145916000f3fe608060405260043610620002cb5760003560e01c80638da5cb5b1162000177578063d655c2f811620000d1578063f4159ed81162000084578063f4159ed81462000a1b578063f52cb29b1462000a40578063f63d13d71462000a65578063f9ed8ead1462000a7d578063fa1a02951462000aa2578063fb2afd4e1462000ac757600080fd5b8063d655c2f81462000916578063d740327a1462000938578063ee835ae41462000972578063f102a67c14620009ac578063f2fde38b14620009d1578063f34efb7514620009f657600080fd5b8063c7166dd5116200012a578063c7166dd51462000811578063c76b9c7f1462000829578063ca0cdea81462000863578063cf7dc77114620008a7578063d345627814620008cc578063d4fac45d14620008f157600080fd5b80638da5cb5b1462000727578063955c4d5d14620007475780639803364e146200076c57806398e36b041462000791578063b1e44d8f14620007b8578063c349026314620007ec57600080fd5b80633d11c0db1162000229578063715018a611620001dc578063715018a614620006395780637879d5741462000651578063823eabc9146200068557806386cdf60414620006aa578063886a5bd314620006d15780638b0e41c4146200070257600080fd5b80633d11c0db14620004fd57806340c3d1771462000537578063445056ce1462000571578063545a7c6214620005ab578063599a597f14620005c35780636aaabc79146200060857600080fd5b806321afe16a116200028257806321afe16a14620003ec57806326ff92e414620004265780632e618676146200044b5780632ed627b514620004725780633504672214620004975780633abdbed214620004c357600080fd5b80630418249614620002d05780630628515514620003005780630c577bdc146200034e5780630cdd53f614620003895780630ec28a6b14620003a25780631e6cfd8b14620003c7575b600080fd5b348015620002dd57600080fd5b50620002e862000adf565b604051620002f7919062001fb4565b60405180910390f35b3480156200030d57600080fd5b506200033d6200031f36600462002010565b6001600160a01b03166000908152600e602052604090205460ff1690565b6040519015158152602001620002f7565b3480156200035b57600080fd5b5060025462000370906001600160a01b031681565b6040516001600160a01b039091168152602001620002f7565b620003a06200039a36600462002030565b62000b39565b005b348015620003af57600080fd5b50620003a0620003c13660046200206b565b62000d6c565b348015620003d457600080fd5b50620003a0620003e6366004620020bb565b62000d88565b348015620003f957600080fd5b50620003706200040b366004620020f9565b6000908152601060205260409020546001600160a01b031690565b3480156200043357600080fd5b50620003a06200044536600462002113565b62000da3565b3480156200045857600080fd5b506200046360045481565b604051908152602001620002f7565b3480156200047f57600080fd5b50620003a062000491366004620020f9565b62000e1d565b348015620004a457600080fd5b5062000463620004b636600462002010565b6001600160a01b03163190565b348015620004d057600080fd5b5062000463620004e236600462002010565b6001600160a01b03166000908152600a602052604090205490565b3480156200050a57600080fd5b50620003706200051c366004620020f9565b6009602052600090815260409020546001600160a01b031681565b3480156200054457600080fd5b50620004636200055636600462002010565b6001600160a01b03166000908152600f602052604090205490565b3480156200057e57600080fd5b506200037062000590366004620020f9565b6008602052600090815260409020546001600160a01b031681565b348015620005b857600080fd5b50620002e862000e8b565b348015620005d057600080fd5b50620005e8620005e2366004620020f9565b62000eec565b604080516001600160a01b039093168352602083019190915201620002f7565b3480156200061557600080fd5b50620004636200062736600462002010565b600f6020526000908152604090205481565b3480156200064657600080fd5b50620003a062000f25565b3480156200065e57600080fd5b506200033d62000670366004620020f9565b60136020526000908152604090205460ff1681565b3480156200069257600080fd5b50620003a0620006a436600462002010565b62000f3d565b348015620006b757600080fd5b50620006c2620010a6565b604051620002f7919062002142565b348015620006de57600080fd5b5062000463620006f036600462002010565b600a6020526000908152604090205481565b3480156200070f57600080fd5b506200046362000721366004620020f9565b62001109565b3480156200073457600080fd5b506000546001600160a01b031662000370565b3480156200075457600080fd5b50620003a062000766366004620020f9565b6200112b565b3480156200077957600080fd5b50620003706200078b366004620020f9565b620011e4565b3480156200079e57600080fd5b50620007a96200120f565b604051620002f7919062002185565b348015620007c557600080fd5b506200033d620007d736600462002010565b600e6020526000908152604090205460ff1681565b348015620007f957600080fd5b50620003a06200080b36600462002030565b62001286565b3480156200081e57600080fd5b50620006c26200137c565b3480156200083657600080fd5b506200037062000848366004620020f9565b6000908152600960205260409020546001600160a01b031690565b3480156200087057600080fd5b50620005e86200088236600462002010565b600c60205260009081526040902080546001909101546001600160a01b039091169082565b348015620008b457600080fd5b5062000463620008c636600462002113565b620013de565b348015620008d957600080fd5b5062000463620008eb366004620020f9565b62001410565b348015620008fe57600080fd5b506200046362000910366004620020bb565b62001421565b3480156200092357600080fd5b5060035462000370906001600160a01b031681565b3480156200094557600080fd5b506200037062000957366004620020f9565b6010602052600090815260409020546001600160a01b031681565b3480156200097f57600080fd5b506200037062000991366004620020f9565b6000908152600860205260409020546001600160a01b031690565b348015620009b957600080fd5b5062000463620009cb36600462002254565b62001499565b348015620009de57600080fd5b50620003a0620009f036600462002010565b62001661565b34801562000a0357600080fd5b50620005e862000a1536600462002030565b620016e0565b34801562000a2857600080fd5b50620003a062000a3a366004620022de565b62001727565b34801562000a4d57600080fd5b50620003a062000a5f366004620020f9565b6200173d565b34801562000a7257600080fd5b50620003a0620017cd565b34801562000a8a57600080fd5b506200037062000a9c36600462002113565b620018fd565b34801562000aaf57600080fd5b50620007a962000ac1366004620020f9565b62001936565b34801562000ad457600080fd5b50620006c2620019c0565b6060601180548060200260200160405190810160405280929190818152602001828054801562000b2f57602002820191906000526020600020905b81548152602001906001019080831162000b1a575b5050505050905090565b6000828152600960205260409020546001600160a01b031662000b9a5760405162461bcd60e51b81526020600482015260146024820152733737ba1030903b30b634b21031b0b6b830b4b3b760611b60448201526064015b60405180910390fd5b60008281526009602090815260408083205481518083018352338082528185018781526001600160a01b03938416808852600c8752858820935184546001600160a01b031990811691871691821786559251600195860181905587518089018952918252818901908152601480548088018255908b5282517fce6d7b5282bd9a3661ae061feed1dbda4e52ab073b1f9285be6e155d9c38d4ec600292830290810180548816928b169290921790915582517fce6d7b5282bd9a3661ae061feed1dbda4e52ab073b1f9285be6e155d9c38d4ed909101558c8b52600b8a52888b2080548089018255908c5299909a208251998b0201805490941698871698909817835596519190930155945492516323b872dd60e01b8152600481019590955260248501819052604485018690529384938493909216906323b872dd906064016020604051808303816000875af115801562000cf9573d6000803e3d6000fd5b505050506040513d601f19601f8201168201806040525081019062000d1f91906200232c565b506002546040518681526001600160a01b039091169033907f5548c837ab068cf56a2c2479df0882a4922fd203edb7517321831d95078c5f629060200160405180910390a3505050505050565b62000d826001600160a01b038416828462001a2b565b50505050565b62000d9e6001600160a01b038316338362001a54565b505050565b6040516323b872dd60e01b8152336004820152306024820152604481018290526001600160a01b038316906323b872dd906064016020604051808303816000875af115801562000df7573d6000803e3d6000fd5b505050506040513d601f19601f8201168201806040525081019062000d9e91906200232c565b62000e2762001a75565b6003546040516308de640f60e11b8152600481018390526001600160a01b03909116906311bcc81e906024015b600060405180830381600087803b15801562000e6f57600080fd5b505af115801562000e84573d6000803e3d6000fd5b5050505050565b3360009081526007602090815260409182902080548351818402810184019094528084526060939283018282801562000b2f576020028201919060005260206000209081548152602001906001019080831162000b1a575050505050905090565b6014818154811062000efd57600080fd5b6000918252602090912060029091020180546001909101546001600160a01b03909116915082565b62000f2f62001a75565b62000f3b600062001ad1565b565b62000f4762001a75565b600062000f548262001b21565b600554909150811062000f9e5760405162461bcd60e51b8152602060048201526011602482015270115b195b595b9d081b9bdd08199bdd5b99607a1b604482015260640162000b91565b6005805462000fb09060019062002366565b8154811062000fc35762000fc36200237c565b600091825260209091200154600580546001600160a01b03909216918390811062000ff25762000ff26200237c565b9060005260206000200160006101000a8154816001600160a01b0302191690836001600160a01b03160217905550600580548062001034576200103462002392565b60008281526020808220600019908401810180546001600160a01b03191690559092019092556001600160a01b0384168252600a81526040918290205491518281527f9f32c8b62a5da5b12d63083a35f5bec448123b307c8f083f8f7f89f55c5d0417910160405180910390a1505050565b6060600580548060200260200160405190810160405280929190818152602001828054801562000b2f57602002820191906000526020600020905b81546001600160a01b03168152600190910190602001808311620010e1575050505050905090565b601281815481106200111a57600080fd5b600091825260209091200154905081565b6200113562001a75565b60025460035460405163095ea7b360e01b81526001600160a01b0391821660048201526024810184905291169063095ea7b3906044016020604051808303816000875af11580156200118b573d6000803e3d6000fd5b505050506040513d601f19601f82011682018060405250810190620011b191906200232c565b506003546040516345977d0360e01b8152600481018390526001600160a01b03909116906345977d039060240162000e54565b600d8181548110620011f557600080fd5b6000918252602090912001546001600160a01b0316905081565b60606014805480602002602001604051908101604052809291908181526020016000905b828210156200127d576000848152602090819020604080518082019091526002850290910180546001600160a01b0316825260019081015482840152908352909201910162001233565b50505050905090565b6000828152600860205260409020546001600160a01b0316338114620013045760405162461bcd60e51b815260206004820152602c60248201527f6d73672e73656e646572206973206e6f7420746865206f776e6572206f66207460448201526b3434b99031b0b6b830b4b3b760a11b606482015260840162000b91565b60008381526009602052604090819020549051632e1a7d4d60e01b8152600481018490526001600160a01b039091169081908190632e1a7d4d90602401600060405180830381600087803b1580156200135c57600080fd5b505af115801562001371573d6000803e3d6000fd5b505050505050505050565b6060600d80548060200260200160405190810160405280929190818152602001828054801562000b2f576020028201919060005260206000209081546001600160a01b03168152600190910190602001808311620010e1575050505050905090565b60076020528160005260406000208181548110620013fb57600080fd5b90600052602060002001600091509150505481565b601181815481106200111a57600080fd5b6040516370a0823160e01b81526001600160a01b038281166004830152600091908416906370a0823190602401602060405180830381865afa1580156200146c573d6000803e3d6000fd5b505050506040513d601f19601f82011682018060405250810190620014929190620023a8565b9392505050565b60048054600091819083620014ae83620023c2565b9091555050600354600254604051600092339288924292899288927f0000000000000000000000000000000000000000000000000000000000000000926001600160a01b03908116921690620015049062001fa6565b6200151798979695949392919062002432565b604051809103906000f08015801562001534573d6000803e3d6000fd5b506005805460018082019092557f036b6384b5eca791c62761152d0c79bb0604c104a5fb6f4eb0703f3154bb3db00180546001600160a01b0384166001600160a01b03199182168117909255601180548085019091557f31ecc21a745e3968a04e9570e4425bc18fa8019c68028196b546d1669c200c68018690553360008181526006602090815260408083208054808901825590845282842001805486168717905583835260078252808320805497880181558352818320909601899055888252600981528582208054851686179055938152600a845284812088905587815260088452849020805490921617905590518481529192507fbc0a5edd152fa5b886dcae82c5c109d113708653b4b9c0224549ccdf715af94e910160405180910390a15090505b92915050565b6200166b62001a75565b6001600160a01b038116620016d25760405162461bcd60e51b815260206004820152602660248201527f4f776e61626c653a206e6577206f776e657220697320746865207a65726f206160448201526564647265737360d01b606482015260840162000b91565b620016dd8162001ad1565b50565b600b6020528160005260406000208181548110620016fd57600080fd5b6000918252602090912060029091020180546001909101546001600160a01b039091169250905082565b62000d826001600160a01b038416838362001b90565b6200174762001a75565b60008181526013602052604090205460ff1615620017b25760405162461bcd60e51b815260206004820152602160248201527f546869732063616d706169676e20697320616c726561647920766572696669656044820152601960fa1b606482015260840162000b91565b6000908152601360205260409020805460ff19166001179055565b336000908152600e602052604090205460ff16156200183b5760405162461bcd60e51b815260206004820152602360248201527f596f752061726520616c72656164792061206d656d626572206f66207468652060448201526244414f60e81b606482015260840162000b91565b60006200184c600180546001019055565b5060018054601280548084019091557fbb8a6a4669ba250d26cd7a459eca9d215f8307e33aebe50379bc5a3617ec344401819055600d80548084019091557fd7b6990105719101dabeb77144f2a3385c8033acd3af97e9423a695e81ad1eb5018054336001600160a01b031991821681179092556000828152600e60209081526040808320805460ff1916909717909655600f81528582208590559381526010909352929091208054909216179055565b600660205281600052604060002081815481106200191a57600080fd5b6000918252602090912001546001600160a01b03169150829050565b6060600b6000838152602001908152602001600020805480602002602001604051908101604052809291908181526020016000905b82821015620019b5576000848152602090819020604080518082019091526002850290910180546001600160a01b031682526001908101548284015290835290920191016200196b565b505050509050919050565b3360009081526006602090815260409182902080548351818402810184019094528084526060939283018282801562000b2f576020028201919060005260206000209081546001600160a01b03168152600190910190602001808311620010e1575050505050905090565b6040805160008082526020820190925262001a4c9085908590859062001bb1565b949350505050565b6040805160008082526020820190925262001a4c9085908590859062001cea565b6000546001600160a01b0316331462000f3b5760405162461bcd60e51b815260206004820181905260248201527f4f776e61626c653a2063616c6c6572206973206e6f7420746865206f776e6572604482015260640162000b91565b600080546001600160a01b038381166001600160a01b0319831681178455604051919092169283917f8be0079c531659141344cd1fd0a4f28419497f9722a3daafe3b4186f6b6457e09190a35050565b6000805b60055481101562001b8657826001600160a01b03166005828154811062001b505762001b506200237c565b6000918252602090912001546001600160a01b03160362001b715792915050565b8062001b7d81620023c2565b91505062001b25565b5050600554919050565b6040805160008082526020820190925262001a4c9085908590859062001d7e565b600080600062001bc18762001dd1565b91509150816001600160a01b03166339255d5b82836001600160a01b03166362fc305e8b8b8b600067ffffffffffffffff81111562001c045762001c04620021df565b6040519080825280601f01601f19166020018201604052801562001c2f576020820181803683370190505b5060405160240162001c45949392919062002492565b60408051808303601f1901815291815260208201805160e094851b6001600160e01b03909116179052519185901b6001600160e01b031916825262001c92939250908990600401620024d4565b6000604051808303816000875af115801562001cb2573d6000803e3d6000fd5b505050506040513d6000823e601f3d908101601f1916820160405262001cdc91908101906200250e565b506001979650505050505050565b600080600062001cfa8762001dd1565b91509150816001600160a01b03166339255d5b82836001600160a01b031663b4b333c68b8b8b600067ffffffffffffffff81111562001d3d5762001d3d620021df565b6040519080825280601f01601f19166020018201604052801562001d68576020820181803683370190505b5060405160240162001c4594939291906200258e565b600080600062001d8e8762001dd1565b91509150816001600160a01b03166339255d5b82836001600160a01b03166350209a628b8b8b600067ffffffffffffffff81111562001c045762001c04620021df565b7f65599bf746e17a00ea62e3610586992d88101b78eec3cf380706621fb97ea837547fb969d79d88acd02d04ed7ee7d43b949e7daf093d363abcfbbc43dfdfd1ce969a546001600160a01b03811662001f6f576001600160a01b03821662001e9b57826001600160a01b03166320bc44256040518163ffffffff1660e01b8152600401602060405180830381865afa15801562001e72573d6000803e3d6000fd5b505050506040513d601f19601f8201168201806040525081019062001e989190620025c4565b91505b604051635b69006f60e11b81527fa9214cc96615e0085d3bb077758db69497dc2dce3b2b1e97bc93c3d18d83efd360048201526001600160a01b0383169063b6d200de90602401602060405180830381865afa15801562001f00573d6000803e3d6000fd5b505050506040513d601f19601f8201168201806040525081019062001f269190620025c4565b9050817f65599bf746e17a00ea62e3610586992d88101b78eec3cf380706621fb97ea83755807fb969d79d88acd02d04ed7ee7d43b949e7daf093d363abcfbbc43dfdfd1ce969a555b6001600160a01b03821662001f885762001f88620025e4565b6001600160a01b03811662001fa15762001fa1620025e4565b915091565b611f6180620025fb83390190565b6020808252825182820181905260009190848201906040850190845b8181101562001fee5783518352928401929184019160010162001fd0565b50909695505050505050565b6001600160a01b0381168114620016dd57600080fd5b6000602082840312156200202357600080fd5b8135620014928162001ffa565b600080604083850312156200204457600080fd5b50508035926020909101359150565b8035600b81900b81146200206657600080fd5b919050565b6000806000606084860312156200208157600080fd5b83356200208e8162001ffa565b92506200209e6020850162002053565b91506040840135620020b08162001ffa565b809150509250925092565b60008060408385031215620020cf57600080fd5b8235620020dc8162001ffa565b91506020830135620020ee8162001ffa565b809150509250929050565b6000602082840312156200210c57600080fd5b5035919050565b600080604083850312156200212757600080fd5b8235620021348162001ffa565b946020939093013593505050565b6020808252825182820181905260009190848201906040850190845b8181101562001fee5783516001600160a01b0316835292840192918401916001016200215e565b602080825282518282018190526000919060409081850190868401855b82811015620021d257815180516001600160a01b03168552860151868501529284019290850190600101620021a2565b5091979650505050505050565b634e487b7160e01b600052604160045260246000fd5b604051601f8201601f1916810167ffffffffffffffff81118282101715620022215762002221620021df565b604052919050565b600067ffffffffffffffff821115620022465762002246620021df565b50601f01601f191660200190565b600080604083850312156200226857600080fd5b823567ffffffffffffffff8111156200228057600080fd5b8301601f810185136200229257600080fd5b8035620022a9620022a38262002229565b620021f5565b818152866020838501011115620022bf57600080fd5b8160208401602083013760006020928201830152969401359450505050565b600080600060608486031215620022f457600080fd5b8335620023018162001ffa565b92506020840135620023138162001ffa565b9150620023236040850162002053565b90509250925092565b6000602082840312156200233f57600080fd5b815180151581146200149257600080fd5b634e487b7160e01b600052601160045260246000fd5b818103818111156200165b576200165b62002350565b634e487b7160e01b600052603260045260246000fd5b634e487b7160e01b600052603160045260246000fd5b600060208284031215620023bb57600080fd5b5051919050565b600060018201620023d757620023d762002350565b5060010190565b60005b83811015620023fb578181015183820152602001620023e1565b50506000910152565b600081518084526200241e816020860160208601620023de565b601f01601f19169290920160200192915050565b6001600160a01b038981168252610100602083018190526000916200245a8483018c62002404565b604085019a909a5260608401989098525050608081019490945291841660a0840152831660c083015290911660e09091015292915050565b6001600160a01b03858116825284166020820152600b83900b6040820152608060608201819052600090620024ca9083018462002404565b9695505050505050565b6001600160a01b0384168152606060208201819052600090620024fa9083018562002404565b8281036040840152620024ca818562002404565b6000602082840312156200252157600080fd5b815167ffffffffffffffff8111156200253957600080fd5b8201601f810184136200254b57600080fd5b80516200255c620022a38262002229565b8181528560208385010111156200257257600080fd5b62002585826020830160208601620023de565b95945050505050565b6001600160a01b038581168252848116602083015283166040820152608060608201819052600090620024ca9083018462002404565b600060208284031215620025d757600080fd5b8151620014928162001ffa565b634e487b7160e01b600052600160045260246000fdfe60a06040523480156200001157600080fd5b5060405162001f6138038062001f618339810160408190526200003491620001a9565b600080546001600160a01b0319166001600160a01b0385161790558183898160018080640100000001826200006b57640c00000000175b816200007957643000000000175b6040516315a722b960e31b8152600481018290526001600160a01b0386169063ad3915c890602401600060405180830381600087803b158015620000bc57600080fd5b505af1158015620000d1573d6000803e3d6000fd5b5050506001600160a01b039889166080525050600080549688166001600160a01b031997881617905550506001805493861693851693909317909255505060028054928b169290911691909117905560036200012e888262000378565b506005959095555050600791909155600455600880546001600160a01b0319166001600160a01b0390921691909117905550620004449050565b6001600160a01b03811681146200017e57600080fd5b50565b634e487b7160e01b600052604160045260246000fd5b8051620001a48162000168565b919050565b600080600080600080600080610100898b031215620001c757600080fd5b8851620001d48162000168565b60208a810151919950906001600160401b0380821115620001f457600080fd5b818c0191508c601f8301126200020957600080fd5b8151818111156200021e576200021e62000181565b604051601f8201601f19908116603f0116810190838211818310171562000249576200024962000181565b816040528281528f868487010111156200026257600080fd5b600093505b8284101562000286578484018601518185018701529285019262000267565b6000868483010152809c50505050505050604089015195506060890151945060808901519350620002ba60a08a0162000197565b9250620002ca60c08a0162000197565b9150620002da60e08a0162000197565b90509295985092959890939650565b600181811c90821680620002fe57607f821691505b6020821081036200031f57634e487b7160e01b600052602260045260246000fd5b50919050565b601f8211156200037357600081815260208120601f850160051c810160208610156200034e5750805b601f850160051c820191505b818110156200036f578281556001016200035a565b5050505b505050565b81516001600160401b0381111562000394576200039462000181565b620003ac81620003a58454620002e9565b8462000325565b602080601f831160018114620003e45760008415620003cb5750858301515b600019600386901b1c1916600185901b1785556200036f565b600085815260208120601f198616915b828110156200041557888601518255948401946001909101908401620003f4565b5085821015620004345787850151600019600388901b60f8161c191681555b5050505050600190811b01905550565b608051611ade62000483600039600081816108a601528181610c3a01528181610c7901528181610d0f01528181610d9b0152610e150152611ade6000f3fe6080604052600436106101185760003560e01c806372ca8a3e116100a0578063cf09e0d011610064578063cf09e0d014610327578063d4b839921461033d578063d86ed3e514610353578063dfb8dca914610373578063f437bc591461038957600080fd5b806372ca8a3e14610271578063884d1f40146102a15780638da5cb5b146102c1578063af640d0f146102e1578063bcb4546f1461030557600080fd5b80632e1a7d4d116100e75780632e1a7d4d146101da57806330d9c915146101fc57806339c80ab11461021c57806353c11f99146102315780635f9e7d771461025157600080fd5b806302964ff1146101245780630c577bdc14610161578063230dbd291461018157806328d2bf94146101ae57600080fd5b3661011f57005b600080fd5b34801561013057600080fd5b50600154610144906001600160a01b031681565b6040516001600160a01b0390911681526020015b60405180910390f35b34801561016d57600080fd5b50600854610144906001600160a01b031681565b34801561018d57600080fd5b506101a161019c3660046114de565b6103a9565b60405161015891906115f9565b3480156101ba57600080fd5b506040805160008082526020820181905291810191909152606001610158565b3480156101e657600080fd5b506101fa6101f5366004611613565b61048e565b005b34801561020857600080fd5b506101a161021736600461162c565b610669565b34801561022857600080fd5b506101a161068e565b34801561023d57600080fd5b506101a161024c3660046114de565b61071c565b34801561025d57600080fd5b506101a161026c36600461162c565b6107dc565b34801561027d57600080fd5b5061029161028c3660046116cb565b6108a4565b6040519015158152602001610158565b3480156102ad57600080fd5b506101a16102bc36600461162c565b6108d6565b3480156102cd57600080fd5b50600254610144906001600160a01b031681565b3480156102ed57600080fd5b506102f760045481565b604051908152602001610158565b34801561031157600080fd5b506102f7600080516020611a8983398151915281565b34801561033357600080fd5b506102f760055481565b34801561034957600080fd5b506102f760075481565b34801561035f57600080fd5b506101a161036e3660046114de565b6109b6565b34801561037f57600080fd5b506102f760065481565b34801561039557600080fd5b50600054610144906001600160a01b031681565b6000546060906001600160a01b031633146103d757604051632f2d36a760e01b815260040160405180910390fd5b6103e089610a82565b6104235782828080601f01602080910402602001604051908101604052809392919081815260200183838082843760009201919091525092935061048192505050565b61042c8a6108a4565b61044957604051631ea25bab60e31b815260040160405180910390fd5b6000610457878901896116e8565b50905060008061046987890189611730565b9150915061047b8d8484848a8a610b18565b93505050505b9998505050505050505050565b600081116104e35760405162461bcd60e51b815260206004820152601d60248201527f416d6f756e74206d7573742062652067726561746572207468616e203000000060448201526064015b60405180910390fd5b6002546001600160a01b031632146105355760405162461bcd60e51b81526020600482015260156024820152743cb7ba9030b932903737ba103a34329037bbb732b960591b60448201526064016104da565b6008546040516370a0823160e01b81523060048201526000916001600160a01b0316906370a0823190602401602060405180830381865afa15801561057e573d6000803e3d6000fd5b505050506040513d601f19601f820116820180604052508101906105a2919061175c565b9050808211156105eb5760405162461bcd60e51b8152602060048201526014602482015273496e73756666696369656e742062616c616e636560601b60448201526064016104da565b60085460025460405163a9059cbb60e01b81526001600160a01b0391821660048201526024810185905291169063a9059cbb906044016020604051808303816000875af1158015610640573d6000803e3d6000fd5b505050506040513d601f19601f820116820180604052508101906106649190611775565b505050565b604080518082019091526002815261060f60f31b60208201525b979650505050505050565b6003805461069b90611797565b80601f01602080910402602001604051908101604052809291908181526020018280546106c790611797565b80156107145780601f106106e957610100808354040283529160200191610714565b820191906000526020600020905b8154815290600101906020018083116106f757829003601f168201915b505050505081565b6000546060906001600160a01b03163314158061073f575061073d89610a82565b155b80610750575061074e8a6108a4565b155b156107945782828080601f01602080910402602001604051908101604052809392919081815260200183838082843760009201919091525092935061048192505050565b6000806107a3888a018a6116e8565b90925090506000806107b7888a018a6117d1565b915091506107ca8e858584868c8c610bc6565b9e9d5050505050505050505050505050565b6000546060906001600160a01b0316331415806107ff57506107fd87610a82565b155b80610810575061080e886108a4565b155b156108345750604080518082019091526002815261060f60f31b6020820152610683565b600080610843868801886116e8565b909250905060008061085f6001600160a01b038d168585610b24565b5050915091508181604051602001610884929190918252600b0b602082015260400190565b604051602081830303815290604052945050505050979650505050505050565b7f00000000000000000000000000000000000000000000000000000000000000006001600160a01b0390811691161490565b6000546060906001600160a01b0316331461090457604051632f2d36a760e01b815260040160405180910390fd5b61090d87610a82565b6109305750604080518082019091526002815261060f60f31b6020820152610683565b610939886108a4565b61095657604051631ea25bab60e31b815260040160405180910390fd5b6000610964858701876116e8565b50905060008061097e6001600160a01b038c168430610b24565b505060408051600b9290920b60208301528181019290925281518082038301815260609091019091529b9a5050505050505050505050565b6000546060906001600160a01b031633146109e457604051632f2d36a760e01b815260040160405180910390fd5b6109ed89610a82565b610a305782828080601f01602080910402602001604051908101604052809392919081815260200183838082843760009201919091525092935061048192505050565b610a398a6108a4565b610a5657604051631ea25bab60e31b815260040160405180910390fd5b6000610a64878901896116e8565b509050610a738b828686610bde565b9b9a5050505050505050505050565b60008054604051635b69006f60e11b8152600080516020611a8983398151915260048201526001600160a01b039091169063b6d200de90602401602060405180830381865afa158015610ad9573d6000803e3d6000fd5b505050506040513d601f19601f82011682018060405250810190610afd91906117f6565b6001600160a01b0316826001600160a01b0316149050919050565b60606106838383610bf3565b6000806000806000610b3588610e4c565b604051631cd43d1160e31b81526001600160a01b038b811660048301528a811660248301528981166044830152919350908316915063e6a1e88890606401608060405180830381865afa158015610b90573d6000803e3d6000fd5b505050506040513d601f19601f82011682018060405250810190610bb49190611813565b929b919a509850909650945050505050565b6060610bd28383610bf3565b98975050505050505050565b6060610bea8383610bf3565b95945050505050565b606082828080601f0160208091040260200160405190810160405280939291908181526020018383808284376000920182905250939450610c629250506001600160a01b037f000000000000000000000000000000000000000000000000000000000000000016905030610fbb565b600154909150600090610ca3906001600160a01b037f0000000000000000000000000000000000000000000000000000000000000000811691309116611048565b90506000610cb18284611851565b905080600b0b600003610d4157600154604080516020601f8901819004810282018101909252878152610d3a9230926001600160a01b0390911691908a908a9081908401838280828437600092019190915250506001600160a01b037f0000000000000000000000000000000000000000000000000000000000000000169493929150506110e0565b9350610e43565b81600b0b600014610dc657600154604080516020601f8901819004810282018101909252878152610d3a926001600160a01b0316918491908a908a9081908401838280828437600092019190915250506001600160a01b037f00000000000000000000000000000000000000000000000000000000000000001694939291505061120a565b600154604080516020601f8901819004810282018101909252878152610e40926001600160a01b0316918491908a908a9081908401838280828437600092019190915250506001600160a01b037f000000000000000000000000000000000000000000000000000000000000000016949392915050611296565b93505b50505092915050565b7f65599bf746e17a00ea62e3610586992d88101b78eec3cf380706621fb97ea837547fb969d79d88acd02d04ed7ee7d43b949e7daf093d363abcfbbc43dfdfd1ce969a546001600160a01b038116610f8a576001600160a01b038216610f1157826001600160a01b03166320bc44256040518163ffffffff1660e01b8152600401602060405180830381865afa158015610eea573d6000803e3d6000fd5b505050506040513d601f19601f82011682018060405250810190610f0e91906117f6565b91505b604051635b69006f60e11b8152600080516020611a8983398151915260048201526001600160a01b0383169063b6d200de90602401602060405180830381865afa158015610f63573d6000803e3d6000fd5b505050506040513d601f19601f82011682018060405250810190610f8791906117f6565b90505b6001600160a01b038216610fa057610fa0611896565b6001600160a01b038116610fb657610fb6611896565b915091565b600080610fc784610e4c565b60405163e8e7e2d160e01b81526001600160a01b0387811660048301528681166024830152919350908316915063e8e7e2d190604401602060405180830381865afa15801561101a573d6000803e3d6000fd5b505050506040513d601f19601f8201168201806040525081019061103e91906118ac565b9150505b92915050565b60008061105485610e4c565b604051631cd43d1160e31b81526001600160a01b03888116600483015287811660248301528681166044830152919350908316915063e6a1e88890606401608060405180830381865afa1580156110af573d6000803e3d6000fd5b505050506040513d601f19601f820116820180604052508101906110d39190611813565b5090979650505050505050565b60606000806110ee876112e4565b91509150816001600160a01b0316634329d29382836001600160a01b031663b4b333c68b8b8b600067ffffffffffffffff81111561112e5761112e6118c9565b6040519080825280601f01601f191660200182016040528015611158576020820181803683370190505b5060405160240161116c94939291906118df565b60408051808303601f1901815291815260208201805160e094851b6001600160e01b03909116179052519185901b6001600160e01b03191682526111b793925090899060040161191d565b6000604051808303816000875af11580156111d6573d6000803e3d6000fd5b505050506040513d6000823e601f3d908101601f191682016040526111fe91908101906119ee565b50979650505050505050565b6060600080611218876112e4565b91509150816001600160a01b0316634329d29382836001600160a01b03166350209a628b8b8b600067ffffffffffffffff811115611258576112586118c9565b6040519080825280601f01601f191660200182016040528015611282576020820181803683370190505b5060405160240161116c9493929190611a52565b60606000806112a4876112e4565b91509150816001600160a01b0316634329d29382836001600160a01b03166362fc305e8b8b8b600067ffffffffffffffff811115611258576112586118c9565b7f65599bf746e17a00ea62e3610586992d88101b78eec3cf380706621fb97ea837547fb969d79d88acd02d04ed7ee7d43b949e7daf093d363abcfbbc43dfdfd1ce969a546001600160a01b038116610f8a576001600160a01b0382166113a957826001600160a01b03166320bc44256040518163ffffffff1660e01b8152600401602060405180830381865afa158015611382573d6000803e3d6000fd5b505050506040513d601f19601f820116820180604052508101906113a691906117f6565b91505b604051635b69006f60e11b8152600080516020611a8983398151915260048201526001600160a01b0383169063b6d200de90602401602060405180830381865afa1580156113fb573d6000803e3d6000fd5b505050506040513d601f19601f8201168201806040525081019061141f91906117f6565b9050817f65599bf746e17a00ea62e3610586992d88101b78eec3cf380706621fb97ea83755807fb969d79d88acd02d04ed7ee7d43b949e7daf093d363abcfbbc43dfdfd1ce969a556001600160a01b038216610fa057610fa0611896565b6001600160a01b038116811461149257600080fd5b50565b60008083601f8401126114a757600080fd5b50813567ffffffffffffffff8111156114bf57600080fd5b6020830191508360208285010111156114d757600080fd5b9250929050565b600080600080600080600080600060c08a8c0312156114fc57600080fd5b89356115078161147d565b985060208a01356115178161147d565b975060408a0135965060608a013567ffffffffffffffff8082111561153b57600080fd5b6115478d838e01611495565b909850965060808c013591508082111561156057600080fd5b61156c8d838e01611495565b909650945060a08c013591508082111561158557600080fd5b506115928c828d01611495565b915080935050809150509295985092959850929598565b60005b838110156115c45781810151838201526020016115ac565b50506000910152565b600081518084526115e58160208601602086016115a9565b601f01601f19169290920160200192915050565b60208152600061160c60208301846115cd565b9392505050565b60006020828403121561162557600080fd5b5035919050565b600080600080600080600060a0888a03121561164757600080fd5b87356116528161147d565b965060208801356116628161147d565b955060408801359450606088013567ffffffffffffffff8082111561168657600080fd5b6116928b838c01611495565b909650945060808a01359150808211156116ab57600080fd5b506116b88a828b01611495565b989b979a50959850939692959293505050565b6000602082840312156116dd57600080fd5b813561160c8161147d565b600080604083850312156116fb57600080fd5b82356117068161147d565b915060208301356117168161147d565b809150509250929050565b80600b0b811461149257600080fd5b6000806040838503121561174357600080fd5b823561174e81611721565b946020939093013593505050565b60006020828403121561176e57600080fd5b5051919050565b60006020828403121561178757600080fd5b8151801515811461160c57600080fd5b600181811c908216806117ab57607f821691505b6020821081036117cb57634e487b7160e01b600052602260045260246000fd5b50919050565b600080604083850312156117e457600080fd5b82359150602083013561171681611721565b60006020828403121561180857600080fd5b815161160c8161147d565b6000806000806080858703121561182957600080fd5b84519350602085015161183b81611721565b6040860151606090960151949790965092505050565b600b81810b9083900b016b7fffffffffffffffffffffff81136b7fffffffffffffffffffffff198212171561104257634e487b7160e01b600052601160045260246000fd5b634e487b7160e01b600052600160045260246000fd5b6000602082840312156118be57600080fd5b815161160c81611721565b634e487b7160e01b600052604160045260246000fd5b6001600160a01b038581168252848116602083015283166040820152608060608201819052600090611913908301846115cd565b9695505050505050565b6001600160a01b0384168152608060208201819052600090611941908301856115cd565b8281038060408501526002825261060f60f31b60208301526040810160608501525061191360408201856115cd565b600082601f83011261198157600080fd5b815167ffffffffffffffff8082111561199c5761199c6118c9565b604051601f8301601f19908116603f011681019082821181831017156119c4576119c46118c9565b816040528381528660208588010111156119dd57600080fd5b6119138460208301602089016115a9565b60008060408385031215611a0157600080fd5b825167ffffffffffffffff80821115611a1957600080fd5b611a2586838701611970565b93506020850151915080821115611a3b57600080fd5b50611a4885828601611970565b9150509250929050565b6001600160a01b03858116825284166020820152600b83900b6040820152608060608201819052600090611913908301846115cd56fea9214cc96615e0085d3bb077758db69497dc2dce3b2b1e97bc93c3d18d83efd3a2646970667358221220c9a1f533f2e8d1cc32890d89a78a88dc209cf0aa7c9b18f6e18555adb7455b8164736f6c63430008120033a2646970667358221220b353523e8969063cb1c23ad66802cc07a9eaaff2df521464575ebdacacef387964736f6c63430008120033",
  "linkReferences": {},
  "deployedLinkReferences": {}
}