{
  "_format": "hh-sol-artifact-1",
  "contractName": "RedirectAll",
  "sourceName": "contracts/RedirectAll.sol",
  "abi": [
    {
      "inputs": [
        {
          "internalType": "contract ISuperToken",
          "name": "acceptedToken",
          "type": "address"
        },
        {
          "internalType": "contract ISuperfluid",
          "name": "_host",
          "type": "address"
        },
        {
          "internalType": "address",
          "name": "receiver",
          "type": "address"
        }
      ],
      "stateMutability": "nonpayable",
      "type": "constructor"
    },
    {
      "inputs": [],
      "name": "NotAcceptedSuperToken",
      "type": "error"
    },
    {
      "inputs": [],
      "name": "NotImplemented",
      "type": "error"
    },
    {
      "inputs": [],
      "name": "UnauthorizedHost",
      "type": "error"
    },
    {
      "anonymous": false,
      "inputs": [
        {
          "indexed": true,
          "internalType": "address",
          "name": "receiver",
          "type": "address"
        }
      ],
      "name": "ReceiverChanged",
      "type": "event"
    },
    {
      "inputs": [],
      "name": "CFAV1_TYPE",
      "outputs": [
        {
          "internalType": "bytes32",
          "name": "",
          "type": "bytes32"
        }
      ],
      "stateMutability": "view",
      "type": "function"
    },
    {
      "inputs": [],
      "name": "_receiver",
      "outputs": [
        {
          "internalType": "address",
          "name": "",
          "type": "address"
        }
      ],
      "stateMutability": "view",
      "type": "function"
    },
    {
      "inputs": [
        {
          "internalType": "contract ISuperToken",
          "name": "superToken",
          "type": "address"
        },
        {
          "internalType": "address",
          "name": "agreementClass",
          "type": "address"
        },
        {
          "internalType": "bytes32",
          "name": "",
          "type": "bytes32"
        },
        {
          "internalType": "bytes",
          "name": "agreementData",
          "type": "bytes"
        },
        {
          "internalType": "bytes",
          "name": "",
          "type": "bytes"
        },
        {
          "internalType": "bytes",
          "name": "ctx",
          "type": "bytes"
        }
      ],
      "name": "afterAgreementCreated",
      "outputs": [
        {
          "internalType": "bytes",
          "name": "newCtx",
          "type": "bytes"
        }
      ],
      "stateMutability": "nonpayable",
      "type": "function"
    },
    {
      "inputs": [
        {
          "internalType": "contract ISuperToken",
          "name": "superToken",
          "type": "address"
        },
        {
          "internalType": "address",
          "name": "agreementClass",
          "type": "address"
        },
        {
          "internalType": "bytes32",
          "name": "",
          "type": "bytes32"
        },
        {
          "internalType": "bytes",
          "name": "agreementData",
          "type": "bytes"
        },
        {
          "internalType": "bytes",
          "name": "cbdata",
          "type": "bytes"
        },
        {
          "internalType": "bytes",
          "name": "ctx",
          "type": "bytes"
        }
      ],
      "name": "afterAgreementTerminated",
      "outputs": [
        {
          "internalType": "bytes",
          "name": "newCtx",
          "type": "bytes"
        }
      ],
      "stateMutability": "nonpayable",
      "type": "function"
    },
    {
      "inputs": [
        {
          "internalType": "contract ISuperToken",
          "name": "superToken",
          "type": "address"
        },
        {
          "internalType": "address",
          "name": "agreementClass",
          "type": "address"
        },
        {
          "internalType": "bytes32",
          "name": "",
          "type": "bytes32"
        },
        {
          "internalType": "bytes",
          "name": "agreementData",
          "type": "bytes"
        },
        {
          "internalType": "bytes",
          "name": "cbdata",
          "type": "bytes"
        },
        {
          "internalType": "bytes",
          "name": "ctx",
          "type": "bytes"
        }
      ],
      "name": "afterAgreementUpdated",
      "outputs": [
        {
          "internalType": "bytes",
          "name": "newCtx",
          "type": "bytes"
        }
      ],
      "stateMutability": "nonpayable",
      "type": "function"
    },
    {
      "inputs": [
        {
          "internalType": "contract ISuperToken",
          "name": "",
          "type": "address"
        },
        {
          "internalType": "address",
          "name": "",
          "type": "address"
        },
        {
          "internalType": "bytes32",
          "name": "",
          "type": "bytes32"
        },
        {
          "internalType": "bytes",
          "name": "",
          "type": "bytes"
        },
        {
          "internalType": "bytes",
          "name": "",
          "type": "bytes"
        }
      ],
      "name": "beforeAgreementCreated",
      "outputs": [
        {
          "internalType": "bytes",
          "name": "",
          "type": "bytes"
        }
      ],
      "stateMutability": "pure",
      "type": "function"
    },
    {
      "inputs": [
        {
          "internalType": "contract ISuperToken",
          "name": "superToken",
          "type": "address"
        },
        {
          "internalType": "address",
          "name": "agreementClass",
          "type": "address"
        },
        {
          "internalType": "bytes32",
          "name": "",
          "type": "bytes32"
        },
        {
          "internalType": "bytes",
          "name": "agreementData",
          "type": "bytes"
        },
        {
          "internalType": "bytes",
          "name": "",
          "type": "bytes"
        }
      ],
      "name": "beforeAgreementTerminated",
      "outputs": [
        {
          "internalType": "bytes",
          "name": "",
          "type": "bytes"
        }
      ],
      "stateMutability": "view",
      "type": "function"
    },
    {
      "inputs": [
        {
          "internalType": "contract ISuperToken",
          "name": "superToken",
          "type": "address"
        },
        {
          "internalType": "address",
          "name": "agreementClass",
          "type": "address"
        },
        {
          "internalType": "bytes32",
          "name": "",
          "type": "bytes32"
        },
        {
          "internalType": "bytes",
          "name": "agreementData",
          "type": "bytes"
        },
        {
          "internalType": "bytes",
          "name": "",
          "type": "bytes"
        }
      ],
      "name": "beforeAgreementUpdated",
      "outputs": [
        {
          "internalType": "bytes",
          "name": "",
          "type": "bytes"
        }
      ],
      "stateMutability": "view",
      "type": "function"
    },
    {
      "inputs": [],
      "name": "currentReceiver",
      "outputs": [
        {
          "internalType": "uint256",
          "name": "startTime",
          "type": "uint256"
        },
        {
          "internalType": "address",
          "name": "receiver",
          "type": "address"
        },
        {
          "internalType": "int96",
          "name": "flowRate",
          "type": "int96"
        }
      ],
      "stateMutability": "view",
      "type": "function"
    },
    {
      "inputs": [],
      "name": "host",
      "outputs": [
        {
          "internalType": "contract ISuperfluid",
          "name": "",
          "type": "address"
        }
      ],
      "stateMutability": "view",
      "type": "function"
    },
    {
      "inputs": [
        {
          "internalType": "contract ISuperToken",
          "name": "superToken",
          "type": "address"
        }
      ],
      "name": "isAcceptedSuperToken",
      "outputs": [
        {
          "internalType": "bool",
          "name": "",
          "type": "bool"
        }
      ],
      "stateMutability": "view",
      "type": "function"
    }
  ],
  "bytecode": "0x60a06040523480156200001157600080fd5b50604051620017d0380380620017d083398101604081905262000034916200012a565b600080546001600160a01b0319166001600160a01b0384161790558160018080640100000001826200006857640c00000000175b816200007657643000000000175b6040516315a722b960e31b8152600481018290526001600160a01b0386169063ad3915c890602401600060405180830381600087803b158015620000b957600080fd5b505af1158015620000ce573d6000803e3d6000fd5b505050506001600160a01b039788166080525050600080549587166001600160a01b0319968716179055505060018054929094169190921617909155506200017e565b6001600160a01b03811681146200012757600080fd5b50565b6000806000606084860312156200014057600080fd5b83516200014d8162000111565b6020850151909350620001608162000111565b6040850151909250620001738162000111565b809150509250925092565b608051611613620001bd60003960008181610469015281816107fd0152818161083c015281816108d20152818161095e01526109d801526116136000f3fe608060405234801561001057600080fd5b50600436106100a95760003560e01c80635f9e7d77116100715780635f9e7d771461014357806372ca8a3e14610156578063884d1f4014610179578063bcb4546f1461018c578063d86ed3e5146101af578063f437bc59146101c257600080fd5b806302964ff1146100ae578063230dbd29146100de57806328d2bf94146100fe57806330d9c9151461011d57806353c11f9914610130575b600080fd5b6001546100c1906001600160a01b031681565b6040516001600160a01b0390911681526020015b60405180910390f35b6100f16100ec3660046110a1565b6101d5565b6040516100d591906111bc565b60408051600080825260208201819052918101919091526060016100d5565b6100f161012b3660046111d6565b6102ba565b6100f161013e3660046110a1565b6102df565b6100f16101513660046111d6565b61039f565b610169610164366004611275565b610467565b60405190151581526020016100d5565b6100f16101873660046111d6565b610499565b6101a16000805160206115be83398151915281565b6040519081526020016100d5565b6100f16101bd3660046110a1565b610579565b6000546100c1906001600160a01b031681565b6000546060906001600160a01b0316331461020357604051632f2d36a760e01b815260040160405180910390fd5b61020c89610645565b61024f5782828080601f0160208091040260200160405190810160405280939291908181526020018383808284376000920191909152509293506102ad92505050565b6102588a610467565b61027557604051631ea25bab60e31b815260040160405180910390fd5b600061028387890189611292565b509050600080610295878901896112da565b915091506102a78d8484848a8a6106db565b93505050505b9998505050505050505050565b604080518082019091526002815261060f60f31b60208201525b979650505050505050565b6000546060906001600160a01b031633141580610302575061030089610645565b155b8061031357506103118a610467565b155b156103575782828080601f0160208091040260200160405190810160405280939291908181526020018383808284376000920191909152509293506102ad92505050565b600080610366888a018a611292565b909250905060008061037a888a018a611306565b9150915061038d8e858584868c8c610789565b9e9d5050505050505050505050505050565b6000546060906001600160a01b0316331415806103c257506103c087610645565b155b806103d357506103d188610467565b155b156103f75750604080518082019091526002815261060f60f31b60208201526102d4565b60008061040686880188611292565b90925090506000806104226001600160a01b038d1685856106e7565b5050915091508181604051602001610447929190918252600b0b602082015260400190565b604051602081830303815290604052945050505050979650505050505050565b7f00000000000000000000000000000000000000000000000000000000000000006001600160a01b0390811691161490565b6000546060906001600160a01b031633146104c757604051632f2d36a760e01b815260040160405180910390fd5b6104d087610645565b6104f35750604080518082019091526002815261060f60f31b60208201526102d4565b6104fc88610467565b61051957604051631ea25bab60e31b815260040160405180910390fd5b600061052785870187611292565b5090506000806105416001600160a01b038c1684306106e7565b505060408051600b9290920b60208301528181019290925281518082038301815260609091019091529b9a5050505050505050505050565b6000546060906001600160a01b031633146105a757604051632f2d36a760e01b815260040160405180910390fd5b6105b089610645565b6105f35782828080601f0160208091040260200160405190810160405280939291908181526020018383808284376000920191909152509293506102ad92505050565b6105fc8a610467565b61061957604051631ea25bab60e31b815260040160405180910390fd5b600061062787890189611292565b5090506106368b8286866107a1565b9b9a5050505050505050505050565b60008054604051635b69006f60e11b81526000805160206115be83398151915260048201526001600160a01b039091169063b6d200de90602401602060405180830381865afa15801561069c573d6000803e3d6000fd5b505050506040513d601f19601f820116820180604052508101906106c0919061132b565b6001600160a01b0316826001600160a01b0316149050919050565b60606102d483836107b6565b60008060008060006106f888610a0f565b604051631cd43d1160e31b81526001600160a01b038b811660048301528a811660248301528981166044830152919350908316915063e6a1e88890606401608060405180830381865afa158015610753573d6000803e3d6000fd5b505050506040513d601f19601f820116820180604052508101906107779190611348565b929b919a509850909650945050505050565b606061079583836107b6565b98975050505050505050565b60606107ad83836107b6565b95945050505050565b606082828080601f01602080910402602001604051908101604052809392919081815260200183838082843760009201829052509394506108259250506001600160a01b037f000000000000000000000000000000000000000000000000000000000000000016905030610b7e565b600154909150600090610866906001600160a01b037f0000000000000000000000000000000000000000000000000000000000000000811691309116610c0b565b905060006108748284611386565b905080600b0b60000361090457600154604080516020601f89018190048102820181019092528781526108fd9230926001600160a01b0390911691908a908a9081908401838280828437600092019190915250506001600160a01b037f000000000000000000000000000000000000000000000000000000000000000016949392915050610ca3565b9350610a06565b81600b0b60001461098957600154604080516020601f89018190048102820181019092528781526108fd926001600160a01b0316918491908a908a9081908401838280828437600092019190915250506001600160a01b037f000000000000000000000000000000000000000000000000000000000000000016949392915050610dcd565b600154604080516020601f8901819004810282018101909252878152610a03926001600160a01b0316918491908a908a9081908401838280828437600092019190915250506001600160a01b037f000000000000000000000000000000000000000000000000000000000000000016949392915050610e59565b93505b50505092915050565b7f65599bf746e17a00ea62e3610586992d88101b78eec3cf380706621fb97ea837547fb969d79d88acd02d04ed7ee7d43b949e7daf093d363abcfbbc43dfdfd1ce969a546001600160a01b038116610b4d576001600160a01b038216610ad457826001600160a01b03166320bc44256040518163ffffffff1660e01b8152600401602060405180830381865afa158015610aad573d6000803e3d6000fd5b505050506040513d601f19601f82011682018060405250810190610ad1919061132b565b91505b604051635b69006f60e11b81526000805160206115be83398151915260048201526001600160a01b0383169063b6d200de90602401602060405180830381865afa158015610b26573d6000803e3d6000fd5b505050506040513d601f19601f82011682018060405250810190610b4a919061132b565b90505b6001600160a01b038216610b6357610b636113cb565b6001600160a01b038116610b7957610b796113cb565b915091565b600080610b8a84610a0f565b60405163e8e7e2d160e01b81526001600160a01b0387811660048301528681166024830152919350908316915063e8e7e2d190604401602060405180830381865afa158015610bdd573d6000803e3d6000fd5b505050506040513d601f19601f82011682018060405250810190610c0191906113e1565b9150505b92915050565b600080610c1785610a0f565b604051631cd43d1160e31b81526001600160a01b03888116600483015287811660248301528681166044830152919350908316915063e6a1e88890606401608060405180830381865afa158015610c72573d6000803e3d6000fd5b505050506040513d601f19601f82011682018060405250810190610c969190611348565b5090979650505050505050565b6060600080610cb187610ea7565b91509150816001600160a01b0316634329d29382836001600160a01b031663b4b333c68b8b8b600067ffffffffffffffff811115610cf157610cf16113fe565b6040519080825280601f01601f191660200182016040528015610d1b576020820181803683370190505b50604051602401610d2f9493929190611414565b60408051808303601f1901815291815260208201805160e094851b6001600160e01b03909116179052519185901b6001600160e01b0319168252610d7a939250908990600401611452565b6000604051808303816000875af1158015610d99573d6000803e3d6000fd5b505050506040513d6000823e601f3d908101601f19168201604052610dc19190810190611523565b50979650505050505050565b6060600080610ddb87610ea7565b91509150816001600160a01b0316634329d29382836001600160a01b03166350209a628b8b8b600067ffffffffffffffff811115610e1b57610e1b6113fe565b6040519080825280601f01601f191660200182016040528015610e45576020820181803683370190505b50604051602401610d2f9493929190611587565b6060600080610e6787610ea7565b91509150816001600160a01b0316634329d29382836001600160a01b03166362fc305e8b8b8b600067ffffffffffffffff811115610e1b57610e1b6113fe565b7f65599bf746e17a00ea62e3610586992d88101b78eec3cf380706621fb97ea837547fb969d79d88acd02d04ed7ee7d43b949e7daf093d363abcfbbc43dfdfd1ce969a546001600160a01b038116610b4d576001600160a01b038216610f6c57826001600160a01b03166320bc44256040518163ffffffff1660e01b8152600401602060405180830381865afa158015610f45573d6000803e3d6000fd5b505050506040513d601f19601f82011682018060405250810190610f69919061132b565b91505b604051635b69006f60e11b81526000805160206115be83398151915260048201526001600160a01b0383169063b6d200de90602401602060405180830381865afa158015610fbe573d6000803e3d6000fd5b505050506040513d601f19601f82011682018060405250810190610fe2919061132b565b9050817f65599bf746e17a00ea62e3610586992d88101b78eec3cf380706621fb97ea83755807fb969d79d88acd02d04ed7ee7d43b949e7daf093d363abcfbbc43dfdfd1ce969a556001600160a01b038216610b6357610b636113cb565b6001600160a01b038116811461105557600080fd5b50565b60008083601f84011261106a57600080fd5b50813567ffffffffffffffff81111561108257600080fd5b60208301915083602082850101111561109a57600080fd5b9250929050565b600080600080600080600080600060c08a8c0312156110bf57600080fd5b89356110ca81611040565b985060208a01356110da81611040565b975060408a0135965060608a013567ffffffffffffffff808211156110fe57600080fd5b61110a8d838e01611058565b909850965060808c013591508082111561112357600080fd5b61112f8d838e01611058565b909650945060a08c013591508082111561114857600080fd5b506111558c828d01611058565b915080935050809150509295985092959850929598565b60005b8381101561118757818101518382015260200161116f565b50506000910152565b600081518084526111a881602086016020860161116c565b601f01601f19169290920160200192915050565b6020815260006111cf6020830184611190565b9392505050565b600080600080600080600060a0888a0312156111f157600080fd5b87356111fc81611040565b9650602088013561120c81611040565b955060408801359450606088013567ffffffffffffffff8082111561123057600080fd5b61123c8b838c01611058565b909650945060808a013591508082111561125557600080fd5b506112628a828b01611058565b989b979a50959850939692959293505050565b60006020828403121561128757600080fd5b81356111cf81611040565b600080604083850312156112a557600080fd5b82356112b081611040565b915060208301356112c081611040565b809150509250929050565b80600b0b811461105557600080fd5b600080604083850312156112ed57600080fd5b82356112f8816112cb565b946020939093013593505050565b6000806040838503121561131957600080fd5b8235915060208301356112c0816112cb565b60006020828403121561133d57600080fd5b81516111cf81611040565b6000806000806080858703121561135e57600080fd5b845193506020850151611370816112cb565b6040860151606090960151949790965092505050565b600b81810b9083900b016b7fffffffffffffffffffffff81136b7fffffffffffffffffffffff1982121715610c0557634e487b7160e01b600052601160045260246000fd5b634e487b7160e01b600052600160045260246000fd5b6000602082840312156113f357600080fd5b81516111cf816112cb565b634e487b7160e01b600052604160045260246000fd5b6001600160a01b03858116825284811660208301528316604082015260806060820181905260009061144890830184611190565b9695505050505050565b6001600160a01b038416815260806020820181905260009061147690830185611190565b8281038060408501526002825261060f60f31b6020830152604081016060850152506114486040820185611190565b600082601f8301126114b657600080fd5b815167ffffffffffffffff808211156114d1576114d16113fe565b604051601f8301601f19908116603f011681019082821181831017156114f9576114f96113fe565b8160405283815286602085880101111561151257600080fd5b61144884602083016020890161116c565b6000806040838503121561153657600080fd5b825167ffffffffffffffff8082111561154e57600080fd5b61155a868387016114a5565b9350602085015191508082111561157057600080fd5b5061157d858286016114a5565b9150509250929050565b6001600160a01b03858116825284166020820152600b83900b60408201526080606082018190526000906114489083018461119056fea9214cc96615e0085d3bb077758db69497dc2dce3b2b1e97bc93c3d18d83efd3a2646970667358221220afe23c895a0089c3ee54ab88bbbd4f2bf2dfdf79685ab499331f7f769c591be364736f6c63430008120033",
  "linkReferences": {},
  "deployedLinkReferences": {}
}